:100000000C942A000C9447000C9447000C94470071
:100010000C9447000C9447000C9447000C94470044
:100020000C9447000C9447000C943A060C940D066F
:100030000C9447000C9447000C9447000C94470024
:100040000C9447000C9447000C9447000C94470014
:100050000C94470011241FBECFE5D8E0DEBFCDBF12
:1000600010E0A0E6B0E0E0E7FEE302C005900D92EC
:10007000AC37B107D9F710E0ACE7B0E001C01D9292
:10008000A238B107E1F70E94781E0C94361F0C9439
:100090000000EF92FF920F931F937B018C0120E0F1
:1000A00030E040E05FE40E94490388238CF0C801FF
:1000B000B70120E030E040E05FE40E94C1010E940F
:1000C000A9039B01AC01205030404040504806C07D
:1000D000C801B7010E94A9039B01AC01B901CA0183
:1000E0001F910F91FF90EF900895A0E0B0E0EBE733
:1000F000F0E00C94FF1EDC012B01FA019C91923080
:1001000008F439C1EB018881823008F433C194309E
:1001100069F4843009F02FC111969C91119789815F
:10012000981709F428C1A0E6B0E025C1843009F48D
:1001300021C18230A9F4923009F01DC19A01AD01AC
:1001400088E0EA010990AE01E90109929E0181501F
:10015000C1F7E201898111969C918923818308C1AD
:10016000923009F407C112962D903C901397EB0141
:100170008A819B811496AD90BD90CD90DC901797AD
:10018000EC80FD800E811F819101281B390BB90184
:1001900037FF04C066277727621B730B6032710537
:1001A0000CF061C0121613066CF537014801062EDB
:1001B00004C096948794779467940A94D2F721E0C8
:1001C00030E040E050E004C0220F331F441F551FB1
:1001D0006A95D2F721503040404050402E213F21B7
:1001E00040235123211531054105510521F021E01E
:1001F00030E040E050E079018A01E628F72808293C
:1002000019293CC0232BD1F1260E371E350146019A
:10021000062E04C096948794779467940A94D2F734
:1002200021E030E040E050E004C0220F331F441FC3
:10023000551F6A95D2F721503040404050402A2146
:100240003B214C215D21211531054105510521F04E
:1002500021E030E040E050E059016A01A628B728CB
:10026000C828D9280BC0821593052CF01C01AA249C
:10027000BB24650103C0EE24FF24870111969C91E5
:10028000D20111968C91981709F445C0992339F041
:10029000A80197012A193B094C095D0906C0A6016E
:1002A00095012E193F09400B510B57FD08C01182D3
:1002B0003382228224833583468357831DC081E0A5
:1002C00081833382228288279927DC01821B930B4A
:1002D000A40BB50B84839583A683B7830DC0220F2F
:1002E000331F441F551F24833583468357838281E0
:1002F000938101979383828324813581468157813D
:10030000DA01C9010197A109B1098F5F9F4FAF4F72
:10031000BF4328F30BC0918333822282EA0CFB1C7B
:100320000C1D1D1DE482F5820683178383E0808304
:10033000248135814681578157FF1AC0C901AA27F8
:1003400097FDA095BA2F81709070A070B0705695EF
:10035000479537952795822B932BA42BB52B848318
:100360009583A683B7838281938101969383828349
:10037000DF0101C0D201CD01CDB7DEB7E2E10C94BF
:100380001B1FA0E2B0E0E7ECF1E00C940B1F6983C7
:100390007A838B839C832D833E834F835887E9E048
:1003A000EE2EF12CEC0EFD1ECE010196B7010E943F
:1003B000D2048E010F5E1F4FCE010596B8010E9438
:1003C000D2048A8991E089278A8BC701B801AE01DE
:1003D000475E5F4F0E9475000E94FD03A096E6E015
:1003E0000C94271FA0E2B0E0E8EFF1E00C940B1FA3
:1003F00069837A838B839C832D833E834F835887C5
:10040000F9E0EF2EF12CEC0EFD1ECE010196B701A6
:100410000E94D2048E010F5E1F4FCE010596B801D7
:100420000E94D204C701B801AE01475E5F4F0E942F
:1004300075000E94FD03A096E6E00C94271FA0E241
:10044000B0E0E5E2F2E00C94FF1E69837A838B83CF
:100450009C832D833E834F835887CE010196BE0136
:10046000675F7F4F0E94D204CE010596BE016F5E8A
:100470007F4F0E94D2049985923088F0898982301A
:10048000C8F0943019F4823051F404C0843029F457
:10049000923081F480E690E0C6C0923049F420E0CA
:1004A0009A858A89981321E02A87CE010996BBC0D4
:1004B000823049F420E09A858A89981321E02A8BBA
:1004C000CE014196B0C02D843E844F8458886D88FB
:1004D0007E888F88988CEE24FF248701AA24BB2471
:1004E000650140E050E060E070E0E0E0F0E0C10174
:1004F00081709070892BE9F0E60CF71C081D191D1E
:100500009A01AB012A0D3B1D4C1D5D1D80E090E062
:10051000A0E0B0E0E614F7040805190520F481E036
:1005200090E0A0E0B0E0BA01A901480F591F6A1F8E
:100530007B1FAA0CBB1CCC1CDD1C97FE08C081E0F5
:1005400090E0A0E0B0E0A82AB92ACA2ADB2A3196B6
:10055000E032F10549F0660C771C881C991C569412
:10056000479437942794C3CFFA85EA892B893C892D
:100570008B859C85280F391F2E5F3F4F17C0CA01FE
:1005800081709070892B61F016950795F794E79428
:1005900080E090E0A0E0B0E8E82AF92A0A2B1B2BC3
:1005A00076956795579547952F5F3F4F77FDE7CF36
:1005B0000CC0440F551F661F771F17FD4160EE0CDE
:1005C000FF1C001F111F21503040403090E05907A0
:1005D00090E0690790E4790760F32B8F3C8FDB0193
:1005E000CA018F779070A070B07080349105A1051A
:1005F000B10561F447FD0AC0E114F10401051105DC
:1006000029F0405C5F4F6F4F7F4F40781A8EFE1786
:1006100011F081E08A8F4D8F5E8F6F8F78A383E01A
:10062000898FCE0149960E94FD03A096E2E10C94C9
:100630001B1FA8E1B0E0EFE1F3E00C940B1F69830E
:100640007A838B839C832D833E834F83588789E0F5
:10065000E82EF12CEC0EFD1ECE010196B7010E9492
:10066000D2048E010F5E1F4FCE010596B8010E9485
:10067000D2048985823040F08989823028F0C70110
:10068000B8010E944A0501C08FEF6896E6E00C941D
:10069000271FA8E1B0E0EFE4F3E00C940B1F69839F
:1006A0007A838B839C832D833E834F83588789E095
:1006B000E82EF12CEC0EFD1ECE010196B7010E9432
:1006C000D2048E010F5E1F4FCE010596B8010E9425
:1006D000D2048985823040F08989823028F0C701B0
:1006E000B8010E944A0501C08FEF6896E6E00C94BD
:1006F000271FA8E1B0E0EFE7F3E00C940B1F69833C
:100700007A838B839C832D833E834F83588789E034
:10071000E82EF12CEC0EFD1ECE010196B7010E94D1
:10072000D2048E010F5E1F4FCE010596B8010E94C4
:10073000D2048985823040F08989823028F0C7014F
:10074000B8010E944A0501C081E06896E6E00C9479
:10075000271FACE0B0E0EFEAF3E00C940F1F6983D1
:100760007A838B839C83CE010196BE016B5F7F4FA2
:100770000E94D2048D81823061F1823050F1843048
:1007800021F48E81882351F12EC02F81388537FDC9
:1007900020C06E812F3131051CF06623F9F023C093
:1007A0008EE190E0821B930B29853A854B855C8511
:1007B00004C056954795379527958A95D2F76623B5
:1007C000B1F050954095309521953F4F4F4F5F4F79
:1007D0000EC020E030E040E050E009C02FEF3FEFD6
:1007E0004FEF5FE704C020E030E040E050E8B9019F
:1007F000CA012C96E2E00C942B1FDF92EF92FF923D
:100800000F931F93FC01E480F58006811781D1804E
:100810008081823048F480E090E0A0E1B0E0E82AF6
:10082000F92A0A2B1B2BA5C0843009F49FC0823003
:1008300021F4EE24FF24870105C0E114F104010531
:10084000110519F4E0E0F0E096C0628173819FEF3A
:10085000623879070CF05BC022E83FEF261B370BAC
:100860002A3131052CF020E030E040E050E02AC091
:10087000B801A701022E04C0769567955795479554
:100880000A94D2F781E090E0A0E0B0E004C0880FC5
:10089000991FAA1FBB1F2A95D2F70197A109B10979
:1008A0008E219F21A023B1230097A105B10521F03E
:1008B00081E090E0A0E0B0E09A01AB01282B392B59
:1008C0004A2B5B2BDA01C9018F779070A070B07052
:1008D00080349105A105B10539F427FF09C0205CDA
:1008E0003F4F4F4F5F4F04C0215C3F4F4F4F5F4F13
:1008F000E0E0F0E02030A0E03A07A0E04A07A0E402
:100900005A0710F0E1E0F0E079018A0127C0603871
:10091000710564F5FB01E158FF4FD801C7018F77DE
:100920009070A070B07080349105A105B10539F4C4
:10093000E7FE0DC080E490E0A0E0B0E004C08FE3EB
:1009400090E0A0E0B0E0E80EF91E0A1F1B1F17FFA1
:1009500005C016950795F794E794319687E01695AC
:100960000795F794E7948A95D1F705C0EE24FF2404
:100970008701EFEFF0E06E2F679566276795902F60
:100980009F77D794DD24D7948E2F8695492F462BB9
:10099000582F5D29B701CA011F910F91FF90EF9069
:1009A000DF900895FC01DB01408151812281622F9B
:1009B0006F7770E0221F2227221F9381892F880FD3
:1009C000822B282F30E0991F9927991F11969C930D
:1009D000119721153105A9F54115510561057105DD
:1009E00011F482E037C082E89FEF13969C938E93B8
:1009F00012979A01AB0167E0220F331F441F551F66
:100A00006A95D1F783E08C930DC0220F331F441FEA
:100A1000551F12968D919C911397019713969C9355
:100A20008E931297203080E0380780E0480780E4FA
:100A3000580758F314962D933D934D935C93179755
:100A400008952F3F310579F4411551056105710570
:100A500019F484E08C93089564FF03C081E08C93C3
:100A600012C01C9210C02F57304013963C932E9307
:100A7000129783E08C9387E0440F551F661F771F02
:100A80008A95D1F7706414964D935D936D937C9322
:100A9000179708951F93DC01FB019C91923008F495
:100AA00047C08081823008F443C0943051F41196DD
:100AB0001C91843099F58181682F70E0611B710968
:100AC0003FC0843021F0923031F48230B9F181811D
:100AD000882389F12DC011961C9111978230F1F075
:100AE00081811817D9F412962D913C911397828128
:100AF00093818217930794F028173907BCF0149656
:100B00008D919D910D90BC91A02D248135814681C0
:100B10005781281739074A075B0718F4112341F05A
:100B20000AC082179307A407B50740F4112319F0F0
:100B300061E070E005C06FEF7FEF02C060E070E041
:100B4000CB011F910895DF93CF93CDB7DEB7A3E517
:100B5000B0E0E3E5F0E08081887F8C93A3E5B0E02E
:100B6000E3E5F0E0808185608C93A3E5B0E0E3E508
:100B7000F0E080818F7B8C93A3E5B0E0E3E5F0E0CB
:100B80008081877F8C93A9E5B0E0E9E5F0E0808182
:100B900081608C93CF91DF910895DF93CF930F9273
:100BA000CDB7DEB78983E2E5F0E0898180830F90DD
:100BB000CF91DF910895DF93CF930F92CDB7DEB73A
:100BC0008983ECE5F0E0898180830F90CF91DF91FC
:100BD0000895DF93CF9300D0CDB7DEB79A83898392
:100BE00089819A8190938100809380000F900F906B
:100BF000CF91DF910895DF93CF9300D0CDB7DEB7CB
:100C00009A83898389819A8190938100809380005F
:100C10000F900F90CF91DF9108951F920F920FB612
:100C20000F9211242F933F934F935F936F937F9372
:100C30008F939F93AF93BF93EF93FF93DF93CF93E4
:100C4000CDB7DEB7E0918000F09181000995CF919A
:100C5000DF91FF91EF91BF91AF919F918F917F9124
:100C60006F915F914F913F912F910F900FBE0F9019
:100C70001F9018951F920F920FB60F9211242F9369
:100C80003F934F935F936F937F938F939F93AF9314
:100C9000BF93EF93FF93DF93CF93CDB7DEB7E09190
:100CA0008000F09181000995CF91DF91FF91EF9144
:100CB000BF91AF919F918F917F916F915F914F9174
:100CC0003F912F910F900FBE0F901F901895DF93BB
:100CD000CF93CDB7DEB7AFE5B0E0EFE5F0E08081D0
:100CE00080688C93CF91DF910895DF93CF93CDB738
:100CF000DEB7AFE5B0E0EFE5F0E080818F778C9371
:100D0000CF91DF910895DF93CF93CDB7DEB7A5E5FF
:100D1000B0E0E5E5F0E080818E7F8C93A5E5B0E062
:100D2000E5E5F0E080818D7F8C93ABE5B0E0EBE50D
:100D3000F0E0808180648C93CF91DF910895DF9300
:100D4000CF93CDB7DEB7A5E5B0E0E5E5F0E0808173
:100D50008B7F8C93A5E5B0E0E5E5F0E08081877FAF
:100D60008C93ABE5B0E0EBE5F0E0808180688C939C
:100D7000CF91DF910895DF93CF93CDB7DEB7ABE589
:100D8000B0E0EBE5F0E0808180628C93CF91DF9161
:100D90000895DF93CF9300D000D0CDB7DEB789831D
:100DA0006A838981282F30E03C832B838B819C814F
:100DB0008130910509F454C02B813C8122303105EA
:100DC00009F496C08B819C81009709F0A6C08A81A6
:100DD000882379F4A5E5B0E0E5E5F0E080818E7F39
:100DE0008C93A5E5B0E0E5E5F0E080818D7F8C9304
:100DF00094C08A81813079F4A5E5B0E0E5E5F0E0C2
:100E0000808181608C93A5E5B0E0E5E5F0E080812C
:100E10008D7F8C9382C08A81823079F4A5E5B0E021
:100E2000E5E5F0E080818E7F8C93A5E5B0E0E5E517
:100E3000F0E0808182608C9370C08A81833009F0F9
:100E40006CC0A5E5B0E0E5E5F0E0808181608C93C1
:100E5000A5E5B0E0E5E5F0E0808182608C935DC0BF
:100E60008A81882379F4A5E5B0E0E5E5F0E08081AA
:100E70008B7F8C93A5E5B0E0E5E5F0E08081877F8E
:100E80008C934BC08A81813079F4A5E5B0E0E5E52B
:100E9000F0E0808184608C93A5E5B0E0E5E5F0E0CA
:100EA0008081877F8C9339C08A81823079F4A5E56F
:100EB000B0E0E5E5F0E080818B7F8C93A5E5B0E0C4
:100EC000E5E5F0E0808188608C9327C08A818330DB
:100ED00021F5A5E5B0E0E5E5F0E0808184608C9344
:100EE000A5E5B0E0E5E5F0E0808188608C9315C071
:100EF0008A81823041F4A4E5B0E0E4E5F0E080814D
:100F00008F7B8C930AC08A81833039F4A4E5B0E0EA
:100F1000E4E5F0E0808180648C930F900F900F9057
:100F20000F90CF91DF910895DF93CF9300D000D041
:100F300000D0CDB7DEB78A836B834C8381E0898391
:100F40008A81883008F0E8C08B81282F30E03E830A
:100F50002D838D819E818130910509F448C02D81BA
:100F60003E81223031052CF48D819E81009771F0F5
:100F7000D1C02D813E812230310509F469C08D81B7
:100F80009E818330910509F494C0C4C08C81813066
:100F9000A1F4AAE3B0E0EAE3F0E08081482F8A817F
:100FA000282F30E081E090E0022E02C0880F991FC8
:100FB0000A94E2F7842B8C93B0C08C818823A9F427
:100FC000AAE3B0E0EAE3F0E08081482F8A81282F8D
:100FD00030E081E090E0022E02C0880F991F0A9451
:100FE000E2F7809584238C9398C0198296C08C81F7
:100FF0008130A1F4A7E3B0E0E7E3F0E08081482F7F
:101000008A81282F30E081E090E0022E02C0880F14
:10101000991F0A94E2F7842B8C937FC08C818823DC
:10102000A9F4A7E3B0E0E7E3F0E08081482F8A81EC
:10103000282F30E081E090E0022E02C0880F991F37
:101040000A94E2F7809584238C9367C0198265C067
:101050008C818130A1F4A4E3B0E0E4E3F0E080818E
:10106000482F8A81282F30E081E090E0022E02C0D4
:10107000880F991F0A94E2F7842B8C934EC08C81C1
:101080008823A9F4A4E3B0E0E4E3F0E08081482FF2
:101090008A81282F30E081E090E0022E02C0880F84
:1010A000991F0A94E2F7809584238C9336C01982A5
:1010B00034C08C818130A1F4A1E3B0E0E1E3F0E041
:1010C0008081482F8A81282F30E081E090E0022E35
:1010D00002C0880F991F0A94E2F7842B8C931DC0DD
:1010E0008C818823A9F4A1E3B0E0E1E3F0E0808102
:1010F000482F8A81282F30E081E090E0022E02C044
:10110000880F991F0A94E2F7809584238C9305C079
:10111000198203C0198201C01982898126960FB6EF
:10112000F894DEBF0FBECDBFCF91DF910895DF935E
:10113000CF9300D000D00F92CDB7DEB78A836B83F8
:1011400081E089838B818F3F19F08B818823A9F5FA
:101150008A81282F30E03D832C838C819D818130D2
:101160009105D1F02C813D81223031052CF48C8108
:101170009D81009761F01FC02C813D812230310597
:1011800081F08C819D818330910581F014C0EAE368
:10119000F0E08B81808312C0E7E3F0E08B818083F5
:1011A0000DC0E4E3F0E08B81808308C0E1E3F0E070
:1011B0008B81808303C0198201C0198289810F90BD
:1011C0000F900F900F900F90CF91DF910895DF93C4
:1011D000CF9300D000D000D0CDB7DEB78A836B8329
:1011E0004C8381E089838A81883008F0E8C08B8154
:1011F000282F30E03E832D838D819E8181309105A3
:1012000009F448C02D813E81223031052CF48D81B6
:101210009E81009771F0D1C02D813E812230310531
:1012200009F469C08D819E818330910509F494C0D1
:10123000C4C08C818130A1F4ABE3B0E0EBE3F0E01B
:101240008081482F8A81282F30E081E090E0022EB3
:1012500002C0880F991F0A94E2F7842B8C93B0C0C8
:101260008C818823A9F4ABE3B0E0EBE3F0E080816C
:10127000482F8A81282F30E081E090E0022E02C0C2
:10128000880F991F0A94E2F7809584238C9398C065
:10129000198296C08C818130A1F4A8E3B0E0E8E324
:1012A000F0E08081482F8A81282F30E081E090E0B3
:1012B000022E02C0880F991F0A94E2F7842B8C93A8
:1012C0007FC08C818823A9F4A8E3B0E0E8E3F0E0D4
:1012D0008081482F8A81282F30E081E090E0022E23
:1012E00002C0880F991F0A94E2F7809584238C939B
:1012F00067C0198265C08C818130A1F4A5E3B0E09C
:10130000E5E3F0E08081482F8A81282F30E081E0FA
:1013100090E0022E02C0880F991F0A94E2F7842BF6
:101320008C934EC08C818823A9F4A5E3B0E0E5E35B
:10133000F0E08081482F8A81282F30E081E090E022
:10134000022E02C0880F991F0A94E2F78095842329
:101350008C9336C0198234C08C818130A1F4A2E311
:10136000B0E0E2E3F0E08081482F8A81282F30E06E
:1013700081E090E0022E02C0880F991F0A94E2F7E4
:10138000842B8C931DC08C818823A9F4A2E3B0E048
:10139000E2E3F0E08081482F8A81282F30E081E06D
:1013A00090E0022E02C0880F991F0A94E2F7809500
:1013B00084238C9305C0198203C0198201C019824D
:1013C000898126960FB6F894DEBF0FBECDBFCF91B0
:1013D000DF910895DF93CF9300D000D00F92CDB767
:1013E000DEB78A836B8381E089838A81282F30E08E
:1013F0003D832C838C819D8181309105D1F02C819E
:101400003D81223031052CF48C819D81009761F063
:101410001FC02C813D812230310581F08C819D815E
:101420008330910581F014C0EBE3F0E08B81808381
:1014300010C0E8E3F0E08B8180830BC0E5E3F0E0CF
:101440008B81808306C0E2E3F0E08B81808301C062
:10145000198289810F900F900F900F900F90CF916C
:10146000DF910895DF93CF93CDB7DEB727970FB6FF
:10147000F894DEBF0FBECDBF8A836B835D834C8340
:1014800081E089838A81883008F079C08C819D81D0
:101490008130910509F473C08B81282F30E03F83A0
:1014A0002E834E815F814130510559F18E819F819C
:1014B0008230910534F42E813F812115310569F088
:1014C0005CC04E815F814230510579F18E819F81F0
:1014D0008330910509F43DC050C0E9E3F0E080811C
:1014E000282F30E08A81882F90E0A90102C055950D
:1014F00047958A95E2F7CA018170EC81FD8180836E
:101500003FC0E6E3F0E08081282F30E08A81882F19
:1015100090E0A90102C0559547958A95E2F7CA0166
:101520008170EC81FD8180832BC0E3E3F0E080815A
:10153000282F30E08A81882F90E0A90102C05595BC
:1015400047958A95E2F7CA018170EC81FD8180831D
:1015500017C0E0E3F0E08081282F30E08A81882FF7
:1015600090E0A90102C0559547958A95E2F7CA0116
:101570008170EC81FD81808303C0198201C01982D2
:10158000898127960FB6F894DEBF0FBECDBFCF91ED
:10159000DF910895DF93CF9300D000D000D0CDB776
:1015A000DEB78A836B834C8381E089838A818530AF
:1015B00008F0C9C08B81282F30E03E832D836D81D8
:1015C0007E816130710509F441C08D819E81823038
:1015D000910534F42D813E812115310571F0B1C0A2
:1015E0006D817E816230710509F459C08D819E81C3
:1015F0008330910509F47CC0A4C0ABE3B0E0EBE319
:10160000F0E08081482F8A81282F30E08FE090E041
:1016100002C0880F991F2A95E2F7809584238C9346
:10162000ABE3B0E0EBE3F0E08081482F8C81282F22
:1016300030E08A81882F90E0B90102C0660F771FE1
:101640008A95E2F7CB01842B8C937EC0A8E3B0E0AF
:10165000E8E3F0E08081482F8A81282F30E08FE096
:1016600090E002C0880F991F2A95E2F780958423A5
:101670008C93A8E3B0E0E8E3F0E08081482F8C8110
:10168000282F30E08A81882F90E0B90102C0660FD0
:10169000771F8A95E2F7CB01842B8C9355C0A5E385
:1016A000B0E0E5E3F0E08081482F8A81282F30E028
:1016B0008FE090E002C0880F991F2A95E2F780958D
:1016C00084238C93A5E3B0E0E5E3F0E08081482F2C
:1016D0008C81282F30E08A81882F90E0B90102C0E8
:1016E000660F771F8A95E2F7CB01842B8C932CC071
:1016F000A2E3B0E0E2E3F0E08081482F8A81282F66
:1017000030E08FE090E002C0880F991F2A95E2F741
:10171000809584238C93A2E3B0E0E2E3F0E0808143
:10172000482F8C81282F30E08A81882F90E0B901E2
:1017300002C0660F771F8A95E2F7CB01842B8C934A
:1017400003C0198201C01982898126960FB6F894C8
:10175000DEBF0FBECDBFCF91DF910895DF93CF9352
:1017600000D0CDB7DEB789836A8389816A8140E082
:101770000E94940789816A8141E00E94E7080F90E6
:101780000F90CF91DF910895DF93CF9300D0CDB725
:10179000DEB79A838983E981FA818181E981FA81BF
:1017A0009081692F0E94AE0B0F900F90CF91DF9127
:1017B0000895DF93CF9300D00F92CDB7DEB79B8310
:1017C0008A8381E08983EA81FB818181EA81FB81CF
:1017D0009081692F9E012F5F3F4FA9010E94320A1D
:1017E00089810F900F900F90CF91DF910895DF9333
:1017F000CF9300D0CDB7DEB79A838983E981FA8190
:1018000080816FEF0E9497080F900F90CF91DF912A
:101810000895DF93CF9300D00F92CDB7DEB79A83B0
:1018200089836B83E981FA818181813031F4E98197
:10183000FA8180816B810E94EA09E981FA818181C4
:10184000882351F4E981FA8120818B81982F90952A
:10185000822F692F0E94EA090F900F900F90CF916D
:10186000DF910895DF93CF93CDB7DEB727970FB6FB
:10187000F894DEBF0FBECDBF9A8389836B83E98165
:10188000FA818181813009F09BC08B81282F30E063
:101890003F832E838E819F818430910509F45FC040
:1018A0002E813F8125303105DCF48E819F8181308E
:1018B000910509F43FC02E813F81223031052CF47F
:1018C0008E819F81009779F174C02E813F812230F3
:1018D0003105B9F18E819F8183309105C9F169C0CD
:1018E0002E813F812730310509F44EC08E819F81C2
:1018F000883091055CF42E813F8125303105B1F1AE
:101900008E819F8186309105C1F153C02E813F8128
:101910002830310509F43FC08E819F8189309105BF
:1019200009F440C046C0E981FA8180816FE30E94DA
:10193000EA09E6C0E981FA81808166E00E94EA094D
:10194000DFC0E981FA8180816BE50E94EA09D8C095
:10195000E981FA8180816FE40E94EA09D1C0E981BE
:10196000FA81808166E60E94EA09CAC0E981FA81AB
:1019700080816DE60E94EA09C3C0E981FA81808115
:101980006DE70E94EA09BCC0E981FA81808167E0C5
:101990000E94EA09B5C0E981FA8180816FE70E945F
:1019A000EA09AEC0E981FA8180816FE60E94EA0906
:1019B000A7C0E981FA81808169E70E94EA09A0C095
:1019C000E981FA818181882309F09AC08B81282FCF
:1019D00030E03D832C838C819D818430910509F416
:1019E0005FC02C813D8125303105DCF48C819D81E7
:1019F0008130910509F43FC02C813D8122303105B1
:101A00002CF48C819D81009779F174C02C813D81EB
:101A100022303105B9F18C819D8183309105C9F166
:101A200069C02C813D812730310509F44EC08C817D
:101A30009D81883091055CF42C813D8125303105F4
:101A4000B1F18C819D8186309105C1F153C02C810B
:101A50003D812830310509F43FC08C819D8189305A
:101A6000910509F440C046C0E981FA81808160ECAB
:101A70000E94EA0945C0E981FA81808169EF0E94EC
:101A8000EA093EC0E981FA81808164EA0E94EA099C
:101A900037C0E981FA81808160EB0E94EA0930C099
:101AA000E981FA81808169E90E94EA0929C0E98116
:101AB000FA81808162E90E94EA0922C0E981FA8103
:101AC000808162E80E94EA091BC0E981FA81808175
:101AD00068EF0E94EA0914C0E981FA81808160E818
:101AE0000E94EA090DC0E981FA81808160E90E94C3
:101AF000EA0906C0E981FA81808166E80E94EA0964
:101B000027960FB6F894DEBF0FBECDBFCF91DF9101
:101B10000895DF93CF9300D0CDB7DEB79A83898342
:101B2000E981FA818181E981FA819081692F41E01F
:101B30000E9494070F900F90CF91DF910895DF934B
:101B4000CF9300D0CDB7DEB79A838983E981FA813C
:101B50008181E981FA819081692F41E00E94E70843
:101B60000F900F90CF91DF910895DF93CF9300D026
:101B7000CDB7DEB79A838983E981FA818181E981D2
:101B8000FA819081692F40E00E94E7080F900F9042
:101B9000CF91DF910895DF93CF9300D0CDB7DEB71B
:101BA0009A83898380917C00882371F4E981FA818A
:101BB0008181E981FA819081692F41E00E94E708E3
:101BC00081E080937C000CC0E981FA818181E98108
:101BD000FA819081692F40E00E94E70810927C0012
:101BE0000F900F90CF91DF910895DF93CF93CDB7F2
:101BF000DEB780E062E040E00E94940781E062E0AE
:101C000040E00E94940782E062E040E00E94940776
:101C100083E062E040E00E94940784E062E041E0FB
:101C20000E94940785E062E041E00E94940786E00C
:101C300062E041E00E94940787E062E041E00E9498
:101C4000940780E062E041E00E94E70881E062E002
:101C500041E00E94E70882E062E041E00E94E7087C
:101C600083E062E041E00E94E70884E062E041E056
:101C70000E94E70885E062E041E00E94E70886E014
:101C800062E041E00E94E70887E062E041E00E94F4
:101C9000E708CF91DF910895DF93CF93CDB7DEB7FB
:101CA00062970FB6F894DEBF0FBECDBF8FEF8F8760
:101CB00084E0888BB5C0888962E040E00E94E70834
:101CC000198AA2C09E012E5E3F4F898962E0A90158
:101CD0000E94320A8A89882309F093C08889882F54
:101CE00090E0AC01445050408989282F30E0CA016F
:101CF000880F991F880F991F820F931FFC01E459C9
:101D0000FF4F80818F8708C09E012E5E3F4F8989DB
:101D100062E0A9010E94320A8A898823A9F380E03F
:101D200090E0A0E2B1E48B879C87AD87BE876B858E
:101D30007C858D859E8520E030E04AEF54E40E944A
:101D40001F02DC01CB018F839887A987BA876F8137
:101D5000788589859A8520E030E040E85FE30E943D
:101D6000790388232CF481E090E09E838D833FC02B
:101D70006F81788589859A8520E03FEF4FE757E4AA
:101D80000E94190318164CF56B857C858D859E8500
:101D900020E030E040E251E40E941F02DC01CB0170
:101DA000BC01CD010E944900DC01CB019E838D83E3
:101DB0000FC088EC90E09C838B838B819C81019782
:101DC000F1F79C838B838D819E8101979E838D8308
:101DD0008D819E81009769F714C06F817885898510
:101DE0009A850E944900DC01CB019E838D838D8101
:101DF0009E819A83898389819A810197F1F79A83D9
:101E0000898389898F5F898B8989843008F45ACFC7
:101E1000888962E041E00E94E70888898F5F888BAB
:101E20008889883008F447CF8F858F3F09F440CFE9
:101E30008F8562960FB6F894DEBF0FBECDBFCF91EF
:101E4000DF910895DF93CF93CDB7DEB76D970FB6CF
:101E5000F894DEBF0FBECDBF8D8F80E063E040E021
:101E60000E94E70881E063E040E00E94E70883E029
:101E70006D8D0E94EA0982E063E041E00E94E7087C
:101E800080E090E0A0E0B0E4898F9A8FAB8FBC8FA8
:101E9000698D7A8D8B8D9C8D20E030E04AEF54E483
:101EA0000E941F02DC01CB018D8B9E8BAF8BB88F04
:101EB0006D897E898F89988D20E030E040E85FE36E
:101EC0000E94790388232CF481E090E09C8B8B8B1B
:101ED0003FC06D897E898F89988D20E03FEF4FE765
:101EE00057E40E94190318164CF5698D7A8D8B8D75
:101EF0009C8D20E030E040E251E40E941F02DC01B2
:101F0000CB01BC01CD010E944900DC01CB019C8BBF
:101F10008B8B0FC088EC90E09A8B898B89899A898A
:101F20000197F1F79A8B898B8B899C8901979C8B00
:101F30008B8B8B899C89009769F714C06D897E898A
:101F40008F89988D0E944900DC01CB019C8B8B8B83
:101F50008B899C89988B8F878F8598890197F1F75A
:101F6000988B8F8782E063E040E00E94E70880E082
:101F700090E0A0E0B0E48B879C87AD87BE876B853F
:101F80007C858D859E8520E030E04AEF54E40E94F8
:101F90001F02DC01CB018F839887A987BA876F81E5
:101FA000788589859A8520E030E040E85FE30E94EB
:101FB000790388232CF481E090E09E838D833FC0D9
:101FC0006F81788589859A8520E03FEF4FE757E458
:101FD0000E94190318164CF56B857C858D859E85AE
:101FE00020E030E040E251E40E941F02DC01CB011E
:101FF000BC01CD010E944900DC01CB019E838D8391
:102000000FC088EC90E09C838B838B819C8101972F
:10201000F1F79C838B838D819E8101979E838D83B5
:102020008D819E81009769F714C06F8178858985BD
:102030009A850E944900DC01CB019E838D838D81AE
:102040009E819A83898389819A810197F1F79A8386
:10205000898382E063E041E00E94E7086D960FB655
:10206000F894DEBF0FBECDBFCF91DF910895DF930F
:10207000CF93CDB7DEB7E8970FB6F894DEBF0FBEAB
:10208000CDBF83E06FEF0E94970880E063E041E0FE
:102090000E94940781E063E041E00E94940782E09F
:1020A00063E041E00E94940780E090E0A0EFB1E49B
:1020B0008DAB9EABAFABB8AF6DA97EA98FA998AD24
:1020C00020E030E04AEF54E40E941F02DC01CB0123
:1020D00089AB9AABABABBCAB69A97AA98BA99CA91C
:1020E00020E030E040E85FE30E94790388232CF48D
:1020F00081E090E098AB8FA73FC069A97AA98BA92E
:102100009CA920E03FEF4FE757E40E9419031816FF
:102110004CF56DA97EA98FA998AD20E030E040E292
:1021200051E40E941F02DC01CB01BC01CD010E94E1
:102130004900DC01CB0198AB8FA70FC088EC90E081
:102140009EA78DA78DA59EA50197F1F79EA78DA7A8
:102150008FA598A9019798AB8FA78FA598A90097ED
:1021600069F714C069A97AA98BA99CA90E944900A2
:10217000DC01CB0198AB8FA78FA598A99CA78BA753
:102180008BA59CA50197F1F79CA78BA788E20E94DD
:10219000220F80E090E0A0E8BFE38FA398A7A9A753
:1021A000BAA76FA178A589A59AA520E030E04AEFEB
:1021B00054E40E941F02DC01CB018BA39CA3ADA3BE
:1021C000BEA36BA17CA18DA19EA120E030E040E8E0
:1021D0005FE30E94790388232CF481E090E09AA3C6
:1021E00089A33FC06BA17CA18DA19EA120E03FEF00
:1021F0004FE757E40E94190318164CF56FA178A514
:1022000089A59AA520E030E040E251E40E941F0237
:10221000DC01CB01BC01CD010E944900DC01CB01F6
:102220009AA389A30FC088EC90E098A38F8F8F8D1D
:1022300098A10197F1F798A38F8F89A19AA101978F
:102240009AA389A389A19AA1009769F714C06BA1E9
:102250007CA18DA19EA10E944900DC01CB019AA323
:1022600089A389A19AA19E8F8D8F8D8D9E8D0197B7
:10227000F1F79E8F8D8F8FE00E94220F80E090E01B
:10228000A0E8BFE3898F9A8FAB8FBC8F698D7A8D61
:102290008B8D9C8D20E030E04AEF54E40E941F02B9
:1022A000DC01CB018D8B9E8BAF8BB88F6D897E89C6
:1022B0008F89988D20E030E040E85FE30E94790349
:1022C00088232CF481E090E09C8B8B8B3FC06D8940
:1022D0007E898F89988D20E03FEF4FE757E40E9479
:1022E000190318164CF5698D7A8D8B8D9C8D20E025
:1022F00030E040E251E40E941F02DC01CB01BC014E
:10230000CD010E944900DC01CB019C8B8B8B0FC05F
:1023100088EC90E09A8B898B89899A890197F1F7EB
:102320009A8B898B8B899C8901979C8B8B8B8B8952
:102330009C89009769F714C06D897E898F89988D73
:102340000E944900DC01CB019C8B8B8B8B899C8983
:10235000988B8F878F8598890197F1F7988B8F8756
:1023600081E00E94220F80E090E0A0E0B0E48B8743
:102370009C87AD87BE876B857C858D859E8520E09B
:1023800030E04AEF54E40E941F02DC01CB018F834E
:102390009887A987BA876F81788589859A8520E093
:1023A00030E040E85FE30E94790388232CF481E069
:1023B00090E09E838D833FC06F81788589859A8563
:1023C00020E03FEF4FE757E40E94190318164CF541
:1023D0006B857C858D859E8520E030E040E251E470
:1023E0000E941F02DC01CB01BC01CD010E9449000B
:1023F000DC01CB019E838D830FC088EC90E09C8331
:102400008B838B819C810197F1F79C838B838D81DA
:102410009E8101979E838D838D819E81009769F7B0
:1024200014C06F81788589859A850E944900DC01F6
:10243000CB019E838D838D819E819A83898389813F
:102440009A810197F1F79A83898386E00E94220F8F
:10245000E8960FB6F894DEBF0FBECDBFCF91DF91E7
:102460000895DF93CF93CDB7DEB76D970FB6F8948D
:10247000DEBF0FBECDBF8D8F80E063E041E00E94E4
:10248000E70881E063E040E00E94E70883E06D8DAB
:102490000E94EA0982E063E041E00E94E70880E0F0
:1024A00090E0A0E0B0E4898F9A8FAB8FBC8F698DEC
:1024B0007A8D8B8D9C8D20E030E04AEF54E40E94B1
:1024C0001F02DC01CB018D8B9E8BAF8BB88F6D898A
:1024D0007E898F89988D20E030E040E85FE30E949C
:1024E000790388232CF481E090E09C8B8B8B3FC098
:1024F0006D897E898F89988D20E03FEF4FE757E403
:102500000E94190318164CF5698D7A8D8B8D9C8D60
:1025100020E030E040E251E40E941F02DC01CB01E8
:10252000BC01CD010E944900DC01CB019C8B8B8B4F
:102530000FC088EC90E09A8B898B89899A890197E2
:10254000F1F79A8B898B8B899C8901979C8B8B8B5C
:102550008B899C89009769F714C06D897E898F8962
:10256000988D0E944900DC01CB019C8B8B8B8B8961
:102570009C89988B8F878F8598890197F1F7988B25
:102580008F8782E063E040E00E94E70880E090E00F
:10259000A0E0B0E48B879C87AD87BE876B857C8588
:1025A0008D859E8520E030E04AEF54E40E941F02B2
:1025B000DC01CB018F839887A987BA876F817885E3
:1025C00089859A8520E030E040E85FE30E94790346
:1025D00088232CF481E090E09E838D833FC06F813F
:1025E000788589859A8520E03FEF4FE757E40E9480
:1025F000190318164CF56B857C858D859E8520E02A
:1026000030E040E251E40E941F02DC01CB01BC013A
:10261000CD010E944900DC01CB019E838D830FC058
:1026200088EC90E09C838B838B819C810197F1F7F0
:102630009C838B838D819E8101979E838D838D8169
:102640009E81009769F714C06F81788589859A8586
:102650000E944900DC01CB019E838D838D819E8188
:102660009A83898389819A810197F1F79A83898373
:1026700082E063E041E00E94E7086D960FB6F894AF
:10268000DEBF0FBECDBFCF91DF910895DF93CF9313
:1026900000D00F92CDB7DEB79B838A8319820EC01C
:1026A0008981282F30E08A819B81FC01E20FF31F92
:1026B00080810E94311289818F5F89838981282FCF
:1026C00030E08A819B81FC01E20FF31F8081882327
:1026D00039F70F900F900F90CF91DF9108950F93DE
:1026E0001F93DF93CF93CDB7DEB760970FB6F89403
:1026F000DEBF0FBECDBF6D877E878F87988B1A8216
:102700008D859E85AF85B8890097A105B10509F42F
:102710004FC02DC08A81082F10E08D859E85AF8522
:10272000B8892AE030E040E050E0BC01CD010E94D1
:10273000DD1EDC01CB01282FCE010396FC01E00F4A
:10274000F11F20838D859E85AF85B8892AE030E012
:1027500040E050E0BC01CD010E94DD1EDA01C9015C
:102760008D879E87AF87B88B8A818F5F8A838D859F
:102770009E85AF85B8890097A105B10559F68A8174
:102780008150898311C08981282F332727FD3095F7
:10279000CE010396FC01E20FF31F8081805D0E9451
:1027A00031128981815089838981882364F703C02C
:1027B00080E30E94311260960FB6F894DEBF0FBE20
:1027C000CDBFCF91DF911F910F910895DF93CF93EC
:1027D00000D0CDB7DEB789836A838981813041F427
:1027E0008A81803128F48A8180580E94220F0AC091
:1027F0008981823039F48A81803120F48A81805441
:102800000E94220F0F900F90CF91DF910895DF93D8
:10281000CF9300D000D0CDB7DEB78A837C836B83A3
:102820008A818830F8F48A81882F90E00896880F92
:10283000991F880F991F880F991F0E94220F1982D4
:102840000EC08981282F30E08B819C81FC01E20F32
:10285000F31F80810E94311289818F5F8983898172
:10286000883078F30F900F900F900F90CF91DF91F9
:102870000895DF93CF93CDB7DEB72E970FB6F894B8
:10288000DEBF0FBECDBF81E00E94220F80E090E04E
:10289000A0E0B0E48B879C87AD87BE876B857C8585
:1028A0008D859E8520E030E04AEF54E40E941F02AF
:1028B000DC01CB018F839887A987BA876F817885E0
:1028C00089859A8520E030E040E85FE30E94790343
:1028D00088232CF481E090E09E838D833FC06F813C
:1028E000788589859A8520E03FEF4FE757E40E947D
:1028F000190318164CF56B857C858D859E8520E027
:1029000030E040E251E40E941F02DC01CB01BC0137
:10291000CD010E944900DC01CB019E838D830FC055
:1029200088EC90E09C838B838B819C810197F1F7ED
:102930009C838B838D819E8101979E838D838D8166
:102940009E81009769F714C06F81788589859A8583
:102950000E944900DC01CB019E838D838D819E8185
:102960009A83898389819A810197F1F79A83898370
:102970002E960FB6F894DEBF0FBECDBFCF91DF917C
:102980000895DF93CF93CDB7DEB760970FB6F89475
:10299000DEBF0FBECDBF888B1F8678C088E10E9446
:1029A000220F80E090E0A6E9B3E48B879C87AD8797
:1029B000BE876B857C858D859E8520E030E04AEF63
:1029C00054E40E941F02DC01CB018F839887A98702
:1029D000BA876F81788589859A8520E030E040E864
:1029E0005FE30E94790388232CF481E090E09E83CA
:1029F0008D833FC06F81788589859A8520E03FEF80
:102A00004FE757E40E94190318164CF56B857C8537
:102A10008D859E8520E030E040E251E40E941F0257
:102A2000DC01CB01BC01CD010E944900DC01CB01DE
:102A30009E838D830FC088EC90E09C838B838B8179
:102A40009C810197F1F79C838B838D819E810197F7
:102A50009E838D838D819E81009769F714C06F815D
:102A6000788589859A850E944900DC01CB019E8387
:102A70008D838D819E819A83898389819A81019733
:102A8000F1F79A8389838F858F5F8F879F858889E8
:102A9000981708F483CF60960FB6F894DEBF0FBE88
:102AA000CDBFCF91DF910895DF93CF93CDB7DEB740
:102AB00060970FB6F894DEBF0FBECDBF888B1F8620
:102AC00078C08CE10E94220F80E090E0A6E9B3E498
:102AD0008B879C87AD87BE876B857C858D859E8522
:102AE00020E030E04AEF54E40E941F02DC01CB01F9
:102AF0008F839887A987BA876F81788589859A851A
:102B000020E030E040E85FE30E94790388232CF462
:102B100081E090E09E838D833FC06F8178858985B9
:102B20009A8520E03FEF4FE757E40E9419031816FB
:102B30004CF56B857C858D859E8520E030E040E2FC
:102B400051E40E941F02DC01CB01BC01CD010E94B7
:102B50004900DC01CB019E838D830FC088EC90E09F
:102B60009C838B838B819C810197F1F79C838B8362
:102B70008D819E8101979E838D838D819E8100979B
:102B800069F714C06F81788589859A850E9449000C
:102B9000DC01CB019E838D838D819E819A83898305
:102BA00089819A810197F1F79A8389838F858F5F55
:102BB0008F879F858889981708F483CF60960FB612
:102BC000F894DEBF0FBECDBFCF91DF910895DF93A4
:102BD000CF93CDB7DEB760970FB6F894DEBF0FBEC8
:102BE000CDBF888B1F8678C080E10E94220F80E0D5
:102BF00090E0A6E9B3E48B879C87AD87BE876B85A1
:102C00007C858D859E8520E030E04AEF54E40E946B
:102C10001F02DC01CB018F839887A987BA876F8158
:102C2000788589859A8520E030E040E85FE30E945E
:102C3000790388232CF481E090E09E838D833FC04C
:102C40006F81788589859A8520E03FEF4FE757E4CB
:102C50000E94190318164CF56B857C858D859E8521
:102C600020E030E040E251E40E941F02DC01CB0191
:102C7000BC01CD010E944900DC01CB019E838D8304
:102C80000FC088EC90E09C838B838B819C810197A3
:102C9000F1F79C838B838D819E8101979E838D8329
:102CA0008D819E81009769F714C06F817885898531
:102CB0009A850E944900DC01CB019E838D838D8122
:102CC0009E819A83898389819A810197F1F79A83FA
:102CD00089838F858F5F8F879F858889981708F4F0
:102CE00083CF60960FB6F894DEBF0FBECDBFCF91F5
:102CF000DF910895DF93CF93CDB7DEB760970FB61E
:102D0000F894DEBF0FBECDBF888B1F8678C084E1EC
:102D10000E94220F80E090E0A6E9B3E48B879C87B5
:102D2000AD87BE876B857C858D859E8520E030E0F4
:102D30004AEF54E40E941F02DC01CB018F83988785
:102D4000A987BA876F81788589859A8520E030E0E8
:102D500040E85FE30E94790388232CF481E090E04F
:102D60009E838D833FC06F81788589859A8520E019
:102D70003FEF4FE757E40E94190318164CF56B8597
:102D80007C858D859E8520E030E040E251E40E9404
:102D90001F02DC01CB01BC01CD010E944900DC0116
:102DA000CB019E838D830FC088EC90E09C838B8346
:102DB0008B819C810197F1F79C838B838D819E8110
:102DC00001979E838D838D819E81009769F714C042
:102DD0006F81788589859A850E944900DC01CB0145
:102DE0009E838D838D819E819A83898389819A8137
:102DF0000197F1F79A8389838F858F5F8F879F85EE
:102E00008889981708F483CF60960FB6F894DEBFD0
:102E10000FBECDBFCF91DF910895DF93CF93CDB794
:102E2000DEB72F970FB6F894DEBF0FBECDBF8F87EA
:102E300080E063E040E00E94E70881E063E040E07A
:102E40000E94E70884E063E04F850E94CA0A82E09E
:102E500063E041E00E94E70880E090E0A0E0B0E499
:102E60008B879C87AD87BE876B857C858D859E858E
:102E700020E030E04AEF54E40E941F02DC01CB0165
:102E80008F839887A987BA876F81788589859A8586
:102E900020E030E040E85FE30E94790388232CF4CF
:102EA00081E090E09E838D833FC06F817885898526
:102EB0009A8520E03FEF4FE757E40E941903181668
:102EC0004CF56B857C858D859E8520E030E040E269
:102ED00051E40E941F02DC01CB01BC01CD010E9424
:102EE0004900DC01CB019E838D830FC088EC90E00C
:102EF0009C838B838B819C810197F1F79C838B83CF
:102F00008D819E8101979E838D838D819E81009707
:102F100069F714C06F81788589859A850E94490078
:102F2000DC01CB019E838D838D819E819A83898371
:102F300089819A810197F1F79A83898382E063E01E
:102F400040E00E94E7082F960FB6F894DEBF0FBE50
:102F5000CDBFCF91DF910895DF93CF93CDB7DEB78B
:102F6000E9970FB6F894DEBF0FBECDBF87E089AFFB
:102F700008C089AD63E041E00E94940789AD8150AB
:102F800089AF89AD8430ACF780E063E041E00E9416
:102F9000940781E063E041E00E94940782E063E0EF
:102FA00041E00E94940780E090E0A0EFB1E48DAB97
:102FB0009EABAFABB8AF6DA97EA98FA998AD20E04D
:102FC00030E04AEF54E40E941F02DC01CB0189ABE0
:102FD0009AABABABBCAB69A97AA98BA99CA920E041
:102FE00030E040E85FE30E94790388232CF481E01D
:102FF00090E098AB8FA73FC069A97AA98BA99CA93B
:1030000020E03FEF4FE757E40E94190318164CF5F4
:103010006DA97EA98FA998AD20E030E040E251E48F
:103020000E941F02DC01CB01BC01CD010E944900BE
:10303000DC01CB0198AB8FA70FC088EC90E09EA776
:103040008DA78DA59EA50197F1F79EA78DA78FA5AA
:1030500098A9019798AB8FA78FA598A9009769F7B2
:1030600014C069A97AA98BA99CA90E944900DC0116
:10307000CB0198AB8FA78FA598A99CA78BA78BA5F1
:103080009CA50197F1F79CA78BA782E00E940D17E2
:1030900082E00E940D1788E20E940D1780E090E008
:1030A000A0E8BFE38FA398A7A9A7BAA76FA178A5A7
:1030B00089A59AA520E030E04AEF54E40E941F025F
:1030C000DC01CB018BA39CA3ADA3BEA36BA17CA110
:1030D0008DA19EA120E030E040E85FE30E947903EB
:1030E00088232CF481E090E09AA389A33FC06BA1D0
:1030F0007CA18DA19EA120E03FEF4FE757E40E9405
:10310000190318164CF56FA178A589A59AA520E09A
:1031100030E040E251E40E941F02DC01CB01BC011F
:10312000CD010E944900DC01CB019AA389A30FC005
:1031300088EC90E098A38F8F8F8D98A10197F1F77D
:1031400098A38F8F89A19AA101979AA389A389A196
:103150009AA1009769F714C06BA17CA18DA19EA1D3
:103160000E944900DC01CB019AA389A389A19AA1FD
:103170009E8F8D8F8D8D9E8D0197F1F79E8F8D8FF8
:1031800080E00E940D178FE00E940D1780E090E014
:10319000A0E8BFE3898F9A8FAB8FBC8F698D7A8D42
:1031A0008B8D9C8D20E030E04AEF54E40E941F029A
:1031B000DC01CB018D8B9E8BAF8BB88F6D897E89A7
:1031C0008F89988D20E030E040E85FE30E9479032A
:1031D00088232CF481E090E09C8B8B8B3FC06D8921
:1031E0007E898F89988D20E03FEF4FE757E40E945A
:1031F000190318164CF5698D7A8D8B8D9C8D20E006
:1032000030E040E251E40E941F02DC01CB01BC012E
:10321000CD010E944900DC01CB019C8B8B8B0FC040
:1032200088EC90E09A8B898B89899A890197F1F7CC
:103230009A8B898B8B899C8901979C8B8B8B8B8933
:103240009C89009769F714C06D897E898F89988D54
:103250000E944900DC01CB019C8B8B8B8B899C8964
:10326000988B8F878F8598890197F1F7988B8F8737
:1032700080E00E940D1781E00E940D1780E090E031
:10328000A0E0B0E48B879C87AD87BE876B857C858B
:103290008D859E8520E030E04AEF54E40E941F02B5
:1032A000DC01CB018F839887A987BA876F817885E6
:1032B00089859A8520E030E040E85FE30E94790349
:1032C00088232CF481E090E09E838D833FC06F8142
:1032D000788589859A8520E03FEF4FE757E40E9483
:1032E000190318164CF56B857C858D859E8520E02D
:1032F00030E040E251E40E941F02DC01CB01BC013E
:10330000CD010E944900DC01CB019E838D830FC05B
:1033100088EC90E09C838B838B819C810197F1F7F3
:103320009C838B838D819E8101979E838D838D816C
:103330009E81009769F714C06F81788589859A8589
:103340000E944900DC01CB019E838D838D819E818B
:103350009A83898389819A810197F1F79A83898376
:1033600080E00E940D1786E00E940D17E9960FB6C7
:10337000F894DEBF0FBECDBFCF91DF910895DF93EC
:10338000CF93CDB7DEB72F970FB6F894DEBF0FBE41
:10339000CDBF8F8780E063E041E00E94E70881E0D5
:1033A00063E040E00E94E70884E063E04F850E940C
:1033B000CA0A82E063E041E00E94E70880E090E012
:1033C000A0E0B0E48B879C87AD87BE876B857C854A
:1033D0008D859E8520E030E04AEF54E40E941F0274
:1033E000DC01CB018F839887A987BA876F817885A5
:1033F00089859A8520E030E040E85FE30E94790308
:1034000088232CF481E090E09E838D833FC06F8100
:10341000788589859A8520E03FEF4FE757E40E9441
:10342000190318164CF56B857C858D859E8520E0EB
:1034300030E040E251E40E941F02DC01CB01BC01FC
:10344000CD010E944900DC01CB019E838D830FC01A
:1034500088EC90E09C838B838B819C810197F1F7B2
:103460009C838B838D819E8101979E838D838D812B
:103470009E81009769F714C06F81788589859A8548
:103480000E944900DC01CB019E838D838D819E814A
:103490009A83898389819A810197F1F79A83898335
:1034A00082E063E040E00E94E7082F960FB6F894B0
:1034B000DEBF0FBECDBFCF91DF910895DF93CF93D5
:1034C0000F92CDB7DEB78983898182958F700E9474
:1034D000BF1989810E94BF190F90CF91DF91089584
:1034E000DF93CF9300D00F92CDB7DEB79B838A8353
:1034F00019820EC08981282F30E08A819B81FC01CE
:10350000E20FF31F80810E945E1A89818F5F898399
:103510008981282F30E08A819B81FC01E20FF31F13
:103520008081882339F70F900F900F90CF91DF9112
:1035300008950F931F93DF93CF93CDB7DEB76097B6
:103540000FB6F894DEBF0FBECDBF6D877E878F8725
:10355000988B1A828D859E85AF85B8890097A105C5
:10356000B10509F44FC02DC08A81082F10E08D8568
:103570009E85AF85B8892AE030E040E050E0BC018C
:10358000CD010E94DD1EDC01CB01282FCE01039668
:10359000FC01E00FF11F20838D859E85AF85B889E2
:1035A0002AE030E040E050E0BC01CD010E94DD1E89
:1035B000DA01C9018D879E87AF87B88B8A818F5FBB
:1035C0008A838D859E85AF85B8890097A105B10551
:1035D00059F68A818150898311C08981282F332728
:1035E00027FD3095CE010396FC01E20FF31F808189
:1035F000805D0E945E1A8981815089838981882338
:1036000064F703C080E30E945E1A60960FB6F894D8
:10361000DEBF0FBECDBFCF91DF911F910F910895F7
:10362000DF93CF9300D0CDB7DEB789836A838981DA
:103630008130B9F48A818031A0F48A81882F90E0AA
:1036400080589F4F959587959595879595958795E2
:10365000959587950E940D178A8180580E940D17B5
:1036600019C089818230B1F48A81803198F48A81CD
:10367000882F90E080549F4F9595879595958795D5
:1036800095958795959587950E940D178A81805409
:103690000E940D170F900F90CF91DF910895DF9347
:1036A000CF9300D000D0CDB7DEB78A837C836B8305
:1036B0008A81883098F58A81882F90E00896880F53
:1036C000991F880F991F880F991F95958795959534
:1036D000879595958795959587950E940D178A8171
:1036E000882F90E00896880F991F880F991F880FE0
:1036F000991F0E940D1719820EC08981282F30E072
:103700008B819C81FC01E20FF31F80810E945E1A75
:1037100089818F5F89838981883078F30F900F903A
:103720000F900F90CF91DF910895DF93CF93CDB796
:10373000DEB72E970FB6F894DEBF0FBECDBF80E088
:103740000E940D1781E00E940D1780E090E0A0E03C
:10375000B0E48B879C87AD87BE876B857C858D8524
:103760009E8520E030E04AEF54E40E941F02DC0115
:10377000CB018F839887A987BA876F8178858985E0
:103780009A8520E030E040E85FE30E9479038823D7
:103790002CF481E090E09E838D833FC06F8178851B
:1037A00089859A8520E03FEF4FE757E40E9419038F
:1037B00018164CF56B857C858D859E8520E030E064
:1037C00040E251E40E941F02DC01CB01BC01CD01AB
:1037D0000E944900DC01CB019E838D830FC088ECE1
:1037E00090E09C838B838B819C810197F1F79C8374
:1037F0008B838D819E8101979E838D838D819E8198
:10380000009769F714C06F81788589859A850E9431
:103810004900DC01CB019E838D838D819E819A833B
:10382000898389819A810197F1F79A8389832E96FA
:103830000FB6F894DEBF0FBECDBFCF91DF910895D4
:10384000DF93CF93CDB7DEB760970FB6F894DEBFA6
:103850000FBECDBF888B1F867BC081E00E940D17F5
:1038600088E10E940D1780E090E0A6E9B3E48B8721
:103870009C87AD87BE876B857C858D859E8520E086
:1038800030E04AEF54E40E941F02DC01CB018F8339
:103890009887A987BA876F81788589859A8520E07E
:1038A00030E040E85FE30E94790388232CF481E054
:1038B00090E09E838D833FC06F81788589859A854E
:1038C00020E03FEF4FE757E40E94190318164CF52C
:1038D0006B857C858D859E8520E030E040E251E45B
:1038E0000E941F02DC01CB01BC01CD010E944900F6
:1038F000DC01CB019E838D830FC088EC90E09C831C
:103900008B838B819C810197F1F79C838B838D81C5
:103910009E8101979E838D838D819E81009769F79B
:1039200014C06F81788589859A850E944900DC01E1
:10393000CB019E838D838D819E819A83898389812A
:103940009A810197F1F79A8389838F858F5F8F879B
:103950009F858889981708F480CF60960FB6F894F1
:10396000DEBF0FBECDBFCF91DF910895DF93CF9320
:10397000CDB7DEB760970FB6F894DEBF0FBECDBFF0
:10398000888B1F867BC081E00E940D178CE10E940E
:103990000D1780E090E0A6E9B3E48B879C87AD87A4
:1039A000BE876B857C858D859E8520E030E04AEF63
:1039B00054E40E941F02DC01CB018F839887A98702
:1039C000BA876F81788589859A8520E030E040E864
:1039D0005FE30E94790388232CF481E090E09E83CA
:1039E0008D833FC06F81788589859A8520E03FEF80
:1039F0004FE757E40E94190318164CF56B857C8538
:103A00008D859E8520E030E040E251E40E941F0257
:103A1000DC01CB01BC01CD010E944900DC01CB01DE
:103A20009E838D830FC088EC90E09C838B838B8179
:103A30009C810197F1F79C838B838D819E810197F7
:103A40009E838D838D819E81009769F714C06F815D
:103A5000788589859A850E944900DC01CB019E8387
:103A60008D838D819E819A83898389819A81019733
:103A7000F1F79A8389838F858F5F8F879F858889E8
:103A8000981708F480CF60960FB6F894DEBF0FBE8B
:103A9000CDBFCF91DF910895DF93CF93CDB7DEB740
:103AA00060970FB6F894DEBF0FBECDBF888B1F8620
:103AB0007BC081E00E940D1780E10E940D1780E01D
:103AC00090E0A6E9B3E48B879C87AD87BE876B85C2
:103AD0007C858D859E8520E030E04AEF54E40E948D
:103AE0001F02DC01CB018F839887A987BA876F817A
:103AF000788589859A8520E030E040E85FE30E9480
:103B0000790388232CF481E090E09E838D833FC06D
:103B10006F81788589859A8520E03FEF4FE757E4EC
:103B20000E94190318164CF56B857C858D859E8542
:103B300020E030E040E251E40E941F02DC01CB01B2
:103B4000BC01CD010E944900DC01CB019E838D8325
:103B50000FC088EC90E09C838B838B819C810197C4
:103B6000F1F79C838B838D819E8101979E838D834A
:103B70008D819E81009769F714C06F817885898552
:103B80009A850E944900DC01CB019E838D838D8143
:103B90009E819A83898389819A810197F1F79A831B
:103BA00089838F858F5F8F879F858889981708F411
:103BB00080CF60960FB6F894DEBF0FBECDBFCF9119
:103BC000DF910895DF93CF93CDB7DEB760970FB63F
:103BD000F894DEBF0FBECDBF888B1F867BC081E00F
:103BE0000E940D1784E10E940D1780E090E0A6E985
:103BF000B3E48B879C87AD87BE876B857C858D857D
:103C00009E8520E030E04AEF54E40E941F02DC0170
:103C1000CB018F839887A987BA876F81788589853B
:103C20009A8520E030E040E85FE30E947903882332
:103C30002CF481E090E09E838D833FC06F81788576
:103C400089859A8520E03FEF4FE757E40E941903EA
:103C500018164CF56B857C858D859E8520E030E0BF
:103C600040E251E40E941F02DC01CB01BC01CD0106
:103C70000E944900DC01CB019E838D830FC088EC3C
:103C800090E09C838B838B819C810197F1F79C83CF
:103C90008B838D819E8101979E838D838D819E81F3
:103CA000009769F714C06F81788589859A850E948D
:103CB0004900DC01CB019E838D838D819E819A8397
:103CC000898389819A810197F1F79A8389838F8506
:103CD0008F5F8F879F858889981708F480CF6096BB
:103CE0000FB6F894DEBF0FBECDBFCF91DF91089520
:103CF000DF93CF93CDB7DEB784E99EE10E94E9055B
:103D00008CE70E94CD050E94A3050E9467068DE7FF
:103D100090E00E94890D88E690E00E94890D8AE675
:103D200090E00E94890DFFCFDF93CF93CDB7DEB730
:103D300080917F008F5F80937F0080917F008F3123
:103D400081F48DE790E00E949F0D88E690E00E944C
:103D5000B50D8AE690E00E94B50D8CE70E94CD0576
:103D600029C080917F008E3381F48DE790E00E941E
:103D7000B50D88E690E00E949F0D8AE690E00E94D3
:103D8000B50D8CE70E94CD0515C080917F008D3563
:103D900089F48DE790E00E94B50D88E690E00E94DE
:103DA000B50D8AE690E00E949F0D8CE70E94CD053C
:103DB00010927F00CF91DF910895A1E21A2EAA1BE5
:103DC000BB1BFD010DC0AA1FBB1FEE1FFF1FA217CB
:103DD000B307E407F50720F0A21BB30BE40BF50BC8
:103DE000661F771F881F991F1A9469F76095709551
:103DF000809590959B01AC01BD01CF0108952F9254
:103E00003F924F925F926F927F928F929F92AF926A
:103E1000BF92CF92DF92EF92FF920F931F93CF93B7
:103E2000DF93CDB7DEB7CA1BDB0B0FB6F894DEBF4E
:103E30000FBECDBF09942A88398848885F846E8474
:103E40007D848C849B84AA84B984C884DF80EE80BE
:103E5000FD800C811B81AA81B981CE0FD11D0FB6C7
:103E6000F894DEBF0FBECDBFED010895F894FFCFEB
:103E70000000000000000000000100023734314F54
:0C3E8000383532303936333D2F2A2D2BD7
:00000001FF
