:100000000C942A000C9447000C9447000C94470071
:100010000C9447000C9447000C9447000C94470044
:100020000C9447000C9447000C9447000C94470034
:100030000C9447000C9447000C9447000C94470024
:100040000C9447000C9447000C9447000C94470014
:100050000C94470011241FBECFE5D8E0DEBFCDBF12
:1000600011E0A0E6B0E0E2E0F6E602C005900D92F5
:10007000A436B107D9F711E0A4E6B1E001C01D92A2
:10008000A736B107E1F70E945A1B0C94FF320C947B
:100090000000EF92FF920F931F937B018C0120E0F1
:1000A00030E040E05FE40E94490388238CF0C801FF
:1000B000B70120E030E040E05FE40E94C1010E940F
:1000C000A9039B01AC01205030404040504806C07D
:1000D000C801B7010E94A9039B01AC01B901CA0183
:1000E0001F910F91FF90EF900895A0E0B0E0EBE733
:1000F000F0E00C94C832DC012B01FA019C919230A3
:1001000008F439C1EB018881823008F433C194309E
:1001100069F4843009F02FC111969C91119789815F
:10012000981709F428C1ACE1B1E025C1843009F485
:1001300021C18230A9F4923009F01DC19A01AD01AC
:1001400088E0EA010990AE01E90109929E0181501F
:10015000C1F7E201898111969C918923818308C1AD
:10016000923009F407C112962D903C901397EB0141
:100170008A819B811496AD90BD90CD90DC901797AD
:10018000EC80FD800E811F819101281B390BB90184
:1001900037FF04C066277727621B730B6032710537
:1001A0000CF061C0121613066CF537014801062EDB
:1001B00004C096948794779467940A94D2F721E0C8
:1001C00030E040E050E004C0220F331F441F551FB1
:1001D0006A95D2F721503040404050402E213F21B7
:1001E00040235123211531054105510521F021E01E
:1001F00030E040E050E079018A01E628F72808293C
:1002000019293CC0232BD1F1260E371E350146019A
:10021000062E04C096948794779467940A94D2F734
:1002200021E030E040E050E004C0220F331F441FC3
:10023000551F6A95D2F721503040404050402A2146
:100240003B214C215D21211531054105510521F04E
:1002500021E030E040E050E059016A01A628B728CB
:10026000C828D9280BC0821593052CF01C01AA249C
:10027000BB24650103C0EE24FF24870111969C91E5
:10028000D20111968C91981709F445C0992339F041
:10029000A80197012A193B094C095D0906C0A6016E
:1002A00095012E193F09400B510B57FD08C01182D3
:1002B0003382228224833583468357831DC081E0A5
:1002C00081833382228288279927DC01821B930B4A
:1002D000A40BB50B84839583A683B7830DC0220F2F
:1002E000331F441F551F24833583468357838281E0
:1002F000938101979383828324813581468157813D
:10030000DA01C9010197A109B1098F5F9F4FAF4F72
:10031000BF4328F30BC0918333822282EA0CFB1C7B
:100320000C1D1D1DE482F5820683178383E0808304
:10033000248135814681578157FF1AC0C901AA27F8
:1003400097FDA095BA2F81709070A070B0705695EF
:10035000479537952795822B932BA42BB52B848318
:100360009583A683B7838281938101969383828349
:10037000DF0101C0D201CD01CDB7DEB7E2E10C94BF
:10038000E432A0E2B0E0E7ECF1E00C94D43269830F
:100390007A838B839C832D833E834F835887E9E048
:1003A000EE2EF12CEC0EFD1ECE010196B7010E943F
:1003B000D2048E010F5E1F4FCE010596B8010E9438
:1003C000D2048A8991E089278A8BC701B801AE01DE
:1003D000475E5F4F0E9475000E94FD03A096E6E015
:1003E0000C94F032A0E2B0E0E8EFF1E00C94D432EB
:1003F00069837A838B839C832D833E834F835887C5
:10040000F9E0EF2EF12CEC0EFD1ECE010196B701A6
:100410000E94D2048E010F5E1F4FCE010596B801D7
:100420000E94D204C701B801AE01475E5F4F0E942F
:1004300075000E94FD03A096E6E00C94F032A0E265
:10044000B0E0E5E2F2E00C94C83269837A838B83F2
:100450009C832D833E834F835887CE010196BE0136
:10046000675F7F4F0E94D204CE010596BE016F5E8A
:100470007F4F0E94D2049985923088F0898982301A
:10048000C8F0943019F4823051F404C0843029F457
:10049000923081F48CE191E0C6C0923049F420E0C2
:1004A0009A858A89981321E02A87CE010996BBC0D4
:1004B000823049F420E09A858A89981321E02A8BBA
:1004C000CE014196B0C02D843E844F8458886D88FB
:1004D0007E888F88988CEE24FF248701AA24BB2471
:1004E000650140E050E060E070E0E0E0F0E0C10174
:1004F00081709070892BE9F0E60CF71C081D191D1E
:100500009A01AB012A0D3B1D4C1D5D1D80E090E062
:10051000A0E0B0E0E614F7040805190520F481E036
:1005200090E0A0E0B0E0BA01A901480F591F6A1F8E
:100530007B1FAA0CBB1CCC1CDD1C97FE08C081E0F5
:1005400090E0A0E0B0E0A82AB92ACA2ADB2A3196B6
:10055000E032F10549F0660C771C881C991C569412
:10056000479437942794C3CFFA85EA892B893C892D
:100570008B859C85280F391F2E5F3F4F17C0CA01FE
:1005800081709070892B61F016950795F794E79428
:1005900080E090E0A0E0B0E8E82AF92A0A2B1B2BC3
:1005A00076956795579547952F5F3F4F77FDE7CF36
:1005B0000CC0440F551F661F771F17FD4160EE0CDE
:1005C000FF1C001F111F21503040403090E05907A0
:1005D00090E0690790E4790760F32B8F3C8FDB0193
:1005E000CA018F779070A070B07080349105A1051A
:1005F000B10561F447FD0AC0E114F10401051105DC
:1006000029F0405C5F4F6F4F7F4F40781A8EFE1786
:1006100011F081E08A8F4D8F5E8F6F8F78A383E01A
:10062000898FCE0149960E94FD03A096E2E10C94C9
:10063000E432A8E1B0E0EFE1F3E00C94D432698356
:100640007A838B839C832D833E834F83588789E0F5
:10065000E82EF12CEC0EFD1ECE010196B7010E9492
:10066000D2048E010F5E1F4FCE010596B8010E9485
:10067000D2048985823040F08989823028F0C70110
:10068000B8010E944A0501C08FEF6896E6E00C941D
:10069000F032A8E1B0E0EFE4F3E00C94D4326983E7
:1006A0007A838B839C832D833E834F83588789E095
:1006B000E82EF12CEC0EFD1ECE010196B7010E9432
:1006C000D2048E010F5E1F4FCE010596B8010E9425
:1006D000D2048985823040F08989823028F0C701B0
:1006E000B8010E944A0501C08FEF6896E6E00C94BD
:1006F000F032A8E1B0E0EFE7F3E00C94D432698384
:100700007A838B839C832D833E834F83588789E034
:10071000E82EF12CEC0EFD1ECE010196B7010E94D1
:10072000D2048E010F5E1F4FCE010596B8010E94C4
:10073000D2048985823040F08989823028F0C7014F
:10074000B8010E944A0501C081E06896E6E00C9479
:10075000F032ACE0B0E0EFEAF3E00C94D832698319
:100760007A838B839C83CE010196BE016B5F7F4FA2
:100770000E94D2048D81823061F1823050F1843048
:1007800021F48E81882351F12EC02F81388537FDC9
:1007900020C06E812F3131051CF06623F9F023C093
:1007A0008EE190E0821B930B29853A854B855C8511
:1007B00004C056954795379527958A95D2F76623B5
:1007C000B1F050954095309521953F4F4F4F5F4F79
:1007D0000EC020E030E040E050E009C02FEF3FEFD6
:1007E0004FEF5FE704C020E030E040E050E8B9019F
:1007F000CA012C96E2E00C94F432DF92EF92FF9261
:100800000F931F93FC01E480F58006811781D1804E
:100810008081823048F480E090E0A0E1B0E0E82AF6
:10082000F92A0A2B1B2BA5C0843009F49FC0823003
:1008300021F4EE24FF24870105C0E114F104010531
:10084000110519F4E0E0F0E096C0628173819FEF3A
:10085000623879070CF05BC022E83FEF261B370BAC
:100860002A3131052CF020E030E040E050E02AC091
:10087000B801A701022E04C0769567955795479554
:100880000A94D2F781E090E0A0E0B0E004C0880FC5
:10089000991FAA1FBB1F2A95D2F70197A109B10979
:1008A0008E219F21A023B1230097A105B10521F03E
:1008B00081E090E0A0E0B0E09A01AB01282B392B59
:1008C0004A2B5B2BDA01C9018F779070A070B07052
:1008D00080349105A105B10539F427FF09C0205CDA
:1008E0003F4F4F4F5F4F04C0215C3F4F4F4F5F4F13
:1008F000E0E0F0E02030A0E03A07A0E04A07A0E402
:100900005A0710F0E1E0F0E079018A0127C0603871
:10091000710564F5FB01E158FF4FD801C7018F77DE
:100920009070A070B07080349105A105B10539F4C4
:10093000E7FE0DC080E490E0A0E0B0E004C08FE3EB
:1009400090E0A0E0B0E0E80EF91E0A1F1B1F17FFA1
:1009500005C016950795F794E794319687E01695AC
:100960000795F794E7948A95D1F705C0EE24FF2404
:100970008701EFEFF0E06E2F679566276795902F60
:100980009F77D794DD24D7948E2F8695492F462BB9
:10099000582F5D29B701CA011F910F91FF90EF9069
:1009A000DF900895FC01DB01408151812281622F9B
:1009B0006F7770E0221F2227221F9381892F880FD3
:1009C000822B282F30E0991F9927991F11969C930D
:1009D000119721153105A9F54115510561057105DD
:1009E00011F482E037C082E89FEF13969C938E93B8
:1009F00012979A01AB0167E0220F331F441F551F66
:100A00006A95D1F783E08C930DC0220F331F441FEA
:100A1000551F12968D919C911397019713969C9355
:100A20008E931297203080E0380780E0480780E4FA
:100A3000580758F314962D933D934D935C93179755
:100A400008952F3F310579F4411551056105710570
:100A500019F484E08C93089564FF03C081E08C93C3
:100A600012C01C9210C02F57304013963C932E9307
:100A7000129783E08C9387E0440F551F661F771F02
:100A80008A95D1F7706414964D935D936D937C9322
:100A9000179708951F93DC01FB019C91923008F495
:100AA00047C08081823008F443C0943051F41196DD
:100AB0001C91843099F58181682F70E0611B710968
:100AC0003FC0843021F0923031F48230B9F181811D
:100AD000882389F12DC011961C9111978230F1F075
:100AE00081811817D9F412962D913C911397828128
:100AF00093818217930794F028173907BCF0149656
:100B00008D919D910D90BC91A02D248135814681C0
:100B10005781281739074A075B0718F4112341F05A
:100B20000AC082179307A407B50740F4112319F0F0
:100B300061E070E005C06FEF7FEF02C060E070E041
:100B4000CB011F910895DF93CF9300D000D000D048
:100B5000CDB7DEB78A836B834C8381E089838A813A
:100B6000883008F0E8C08B81282F30E03E832D8349
:100B70008D819E818130910509F448C02D813E818F
:100B8000223031052CF48D819E81009771F0D1C007
:100B90002D813E812230310509F469C08D819E810D
:100BA0008330910509F494C0C4C08C818130A1F4D4
:100BB000AAE3B0E0EAE3F0E08081482F8A81282FA1
:100BC00030E081E090E0022E02C0880F991F0A9465
:100BD000E2F7842B8C93B0C08C818823A9F4AAE31C
:100BE000B0E0EAE3F0E08081482F8A81282F30E0EE
:100BF00081E090E0022E02C0880F991F0A94E2F76C
:100C0000809584238C9398C0198296C08C81813002
:100C1000A1F4A7E3B0E0E7E3F0E08081482F8A8108
:100C2000282F30E081E090E0022E02C0880F991F4B
:100C30000A94E2F7842B8C937FC08C818823A9F4DB
:100C4000A7E3B0E0E7E3F0E08081482F8A81282F16
:100C500030E081E090E0022E02C0880F991F0A94D4
:100C6000E2F7809584238C9367C0198265C08C81DC
:100C70008130A1F4A4E3B0E0E4E3F0E08081482F08
:100C80008A81282F30E081E090E0022E02C0880F98
:100C9000991F0A94E2F7842B8C934EC08C81882391
:100CA000A9F4A4E3B0E0E4E3F0E08081482F8A8176
:100CB000282F30E081E090E0022E02C0880F991FBB
:100CC0000A94E2F7809584238C9336C0198234C04D
:100CD0008C818130A1F4A1E3B0E0E1E3F0E0808118
:100CE000482F8A81282F30E081E090E0022E02C058
:100CF000880F991F0A94E2F7842B8C931DC08C8176
:100D00008823A9F4A1E3B0E0E1E3F0E08081482F7B
:100D10008A81282F30E081E090E0022E02C0880F07
:100D2000991F0A94E2F7809584238C9305C0198259
:100D300003C0198201C01982898126960FB6F894E2
:100D4000DEBF0FBECDBFCF91DF910895DF93CF936C
:100D500000D000D00F92CDB7DEB78A836B8381E0DD
:100D600089838B818F3F19F08B818823A9F58A8134
:100D7000282F30E03D832C838C819D81813091052B
:100D8000D1F02C813D81223031052CF48C819D8164
:100D9000009761F01FC02C813D812230310581F028
:100DA0008C819D818330910581F014C0EAE3F0E0ED
:100DB0008B81808312C0E7E3F0E08B8180830DC0DC
:100DC000E4E3F0E08B81808308C0E1E3F0E08B8115
:100DD000808303C0198201C0198289810F900F900E
:100DE0000F900F900F90CF91DF910895DF93CF93E5
:100DF00000D000D000D0CDB7DEB78A836B834C83A0
:100E000081E089838A81883008F0E8C08B81282FAF
:100E100030E03E832D838D819E818130910509F4E0
:100E200048C02D813E81223031052CF48D819E8178
:100E3000009771F0D1C02D813E812230310509F437
:100E400069C08D819E818330910509F494C0C4C02E
:100E50008C818130A1F4ABE3B0E0EBE3F0E0808182
:100E6000482F8A81282F30E081E090E0022E02C0D6
:100E7000880F991F0A94E2F7842B8C93B0C08C8161
:100E80008823A9F4ABE3B0E0EBE3F0E08081482FE6
:100E90008A81282F30E081E090E0022E02C0880F86
:100EA000991F0A94E2F7809584238C9398C0198245
:100EB00096C08C818130A1F4A8E3B0E0E8E3F0E0D3
:100EC0008081482F8A81282F30E081E090E0022E37
:100ED00002C0880F991F0A94E2F7842B8C937FC07D
:100EE0008C818823A9F4A8E3B0E0E8E3F0E08081F6
:100EF000482F8A81282F30E081E090E0022E02C046
:100F0000880F991F0A94E2F7809584238C9367C019
:100F1000198265C08C818130A1F4A5E3B0E0E5E3DE
:100F2000F0E08081482F8A81282F30E081E090E036
:100F3000022E02C0880F991F0A94E2F7842B8C932B
:100F40004EC08C818823A9F4A5E3B0E0E5E3F0E08E
:100F50008081482F8A81282F30E081E090E0022EA6
:100F600002C0880F991F0A94E2F7809584238C931E
:100F700036C0198234C08C818130A1F4A2E3B0E084
:100F8000E2E3F0E08081482F8A81282F30E081E081
:100F900090E0022E02C0880F991F0A94E2F7842B7A
:100FA0008C931DC08C818823A9F4A2E3B0E0E2E316
:100FB000F0E08081482F8A81282F30E081E090E0A6
:100FC000022E02C0880F991F0A94E2F780958423AD
:100FD0008C9305C0198203C0198201C019828981CE
:100FE00026960FB6F894DEBF0FBECDBFCF91DF912E
:100FF0000895DF93CF9300D000D00F92CDB7DEB726
:101000008A836B8381E089838A81282F30E03D8346
:101010002C838C819D8181309105D1F02C813D8183
:10102000223031052CF48C819D81009761F01FC026
:101030002C813D812230310581F08C819D8183306E
:10104000910581F014C0EBE3F0E08B81808310C048
:10105000E8E3F0E08B8180830BC0E5E3F0E08B8177
:10106000808306C0E2E3F0E08B81808301C01982B7
:1010700089810F900F900F900F900F90CF91DF917B
:101080000895DF93CF93CDB7DEB727970FB6F894C7
:10109000DEBF0FBECDBF8A836B835D834C8381E04F
:1010A00089838A81883008F079C08C819D81813064
:1010B000910509F473C08B81282F30E03F832E8384
:1010C0004E815F814130510559F18E819F8182307F
:1010D000910534F42E813F812115310569F05CC002
:1010E0004E815F814230510579F18E819F8183303D
:1010F000910509F43DC050C0E9E3F0E08081282F5C
:1011000030E08A81882F90E0A90102C0559547956B
:101110008A95E2F7CA018170EC81FD8180833FC02E
:10112000E6E3F0E08081282F30E08A81882F90E08C
:10113000A90102C0559547958A95E2F7CA018170C9
:10114000EC81FD8180832BC0E3E3F0E08081282FD8
:1011500030E08A81882F90E0A90102C0559547951B
:101160008A95E2F7CA018170EC81FD81808317C006
:10117000E0E3F0E08081282F30E08A81882F90E042
:10118000A90102C0559547958A95E2F7CA01817079
:10119000EC81FD81808303C0198201C0198289819D
:1011A00027960FB6F894DEBF0FBECDBFCF91DF916B
:1011B0000895DF93CF9300D000D000D0CDB7DEB735
:1011C0008A836B834C8381E089838A81853008F030
:1011D000C9C08B81282F30E03E832D836D817E81B5
:1011E0006130710509F441C08D819E818230910585
:1011F00034F42D813E812115310571F0B1C06D812E
:101200007E816230710509F459C08D819E818330E1
:10121000910509F47CC0A4C0ABE3B0E0EBE3F0E0DF
:101220008081482F8A81282F30E08FE090E002C033
:10123000880F991F2A95E2F7809584238C93ABE35E
:10124000B0E0EBE3F0E08081482F8C81282F30E084
:101250008A81882F90E0B90102C0660F771F8A95B6
:10126000E2F7CB01842B8C937EC0A8E3B0E0E8E3E7
:10127000F0E08081482F8A81282F30E08FE090E0D5
:1012800002C0880F991F2A95E2F7809584238C93DA
:10129000A8E3B0E0E8E3F0E08081482F8C81282FBC
:1012A00030E08A81882F90E0B90102C0660F771F75
:1012B0008A95E2F7CB01842B8C9355C0A5E3B0E06F
:1012C000E5E3F0E08081482F8A81282F30E08FE02D
:1012D00090E002C0880F991F2A95E2F78095842339
:1012E0008C93A5E3B0E0E5E3F0E08081482F8C81AA
:1012F000282F30E08A81882F90E0B90102C0660F64
:10130000771F8A95E2F7CB01842B8C932CC0A2E344
:10131000B0E0E2E3F0E08081482F8A81282F30E0BE
:101320008FE090E002C0880F991F2A95E2F7809520
:1013300084238C93A2E3B0E0E2E3F0E08081482FC5
:101340008C81282F30E08A81882F90E0B90102C07B
:10135000660F771F8A95E2F7CB01842B8C9303C02D
:10136000198201C01982898126960FB6F894DEBFD2
:101370000FBECDBFCF91DF910895DF93CF9300D003
:10138000CDB7DEB789836A8389816A8140E00E9494
:10139000A30589816A8141E00E94F6060F900F90B3
:1013A000CF91DF910895DF93CF9300D0CDB7DEB713
:1013B0009A838983E981FA818181E981FA81908127
:1013C000692F0E94BD090F900F90CF91DF91089572
:1013D000DF93CF9300D00F92CDB7DEB79B838A8384
:1013E00081E08983EA81FB818181EA81FB819081AF
:1013F000692F9E012F5F3F4FA9010E9441088981FB
:101400000F900F900F90CF91DF910895DF93CF93BE
:1014100000D0CDB7DEB79A838983E981FA818081D4
:101420006FEF0E94A6060F900F90CF91DF91089565
:10143000DF93CF9300D00F92CDB7DEB79A83898325
:101440006B83E981FA818181813031F4E981FA810C
:1014500080816B810E94F907E981FA81818188236B
:1014600051F4E981FA8120818B81982F9095822F08
:10147000692F0E94F9070F900F900F90CF91DF9185
:101480000895DF93CF93CDB7DEB727970FB6F894C3
:10149000DEBF0FBECDBF9A8389836B83E981FA815A
:1014A0008181813009F09BC08B81282F30E03F8300
:1014B0002E838E819F818430910509F45FC02E8137
:1014C0003F8125303105DCF48E819F81813091058B
:1014D00009F43FC02E813F81223031052CF48E81EA
:1014E0009F81009779F174C02E813F8122303105B0
:1014F000B9F18E819F8183309105C9F169C02E8138
:101500003F812730310509F44EC08E819F8188309C
:1015100091055CF42E813F8125303105B1F18E813A
:101520009F8186309105C1F153C02E813F812830C3
:10153000310509F43FC08E819F818930910509F4FE
:1015400040C046C0E981FA8180816FE30E94F907BB
:10155000E6C0E981FA81808166E00E94F907DFC078
:10156000E981FA8180816BE50E94F907D8C0E981A1
:10157000FA8180816FE40E94F907D1C0E981FA8184
:10158000808166E60E94F907CAC0E981FA818081FC
:101590006DE60E94F907C3C0E981FA8180816DE799
:1015A0000E94F907BCC0E981FA81808167E00E944E
:1015B000F907B5C0E981FA8180816FE70E94F907D8
:1015C000AEC0E981FA8180816FE60E94F907A7C069
:1015D000E981FA81808169E70E94F907A0C0E98169
:1015E000FA818181882309F09AC08B81282F30E00D
:1015F0003D832C838C819D818430910509F45FC0EB
:101600002C813D8125303105DCF48C819D81813038
:10161000910509F43FC02C813D81223031052CF425
:101620008C819D81009779F174C02C813D8122309D
:101630003105B9F18C819D8183309105C9F169C073
:101640002C813D812730310509F44EC08C819D816C
:10165000883091055CF42C813D8125303105B1F154
:101660008C819D8186309105C1F153C02C813D81D3
:101670002830310509F43FC08C819D818930910566
:1016800009F440C046C0E981FA81808160EC0E9483
:10169000F90745C0E981FA81808169EF0E94F90765
:1016A0003EC0E981FA81808164EA0E94F90737C06F
:1016B000E981FA81808160EB0E94F90730C0E981FD
:1016C000FA81808169E90E94F90729C0E981FA81DC
:1016D000808162E90E94F90722C0E981FA81808154
:1016E00062E80E94F9071BC0E981FA81808168EFF6
:1016F0000E94F90714C0E981FA81808160E80E94A4
:10170000F9070DC0E981FA81808160E90E94F9073B
:1017100006C0E981FA81808166E80E94F907279670
:101720000FB6F894DEBF0FBECDBFCF91DF91089505
:10173000DF93CF9300D0CDB7DEB79A838983E98159
:10174000FA818181E981FA819081692F41E00E94CB
:10175000A3050F900F90CF91DF910895DF93CF9362
:1017600000D0CDB7DEB79A838983E981FA81818180
:10177000E981FA819081692F41E00E94F6060F907D
:101780000F90CF91DF910895DF93CF9300D0CDB725
:10179000DEB79A838983E981FA818181E981FA81BF
:1017A0009081692F40E00E94F6060F900F90CF9134
:1017B000DF910895DF93CF9300D0CDB7DEB79A8342
:1017C000898380916401882371F4E981FA818181A0
:1017D000E981FA819081692F41E00E94F60681E05B
:1017E000809364010CC0E981FA818181E981FA81E9
:1017F0009081692F40E00E94F606109264010F90DC
:101800000F90CF91DF910895DF93CF93CDB7DEB7DF
:101810006D970FB6F894DEBF0FBECDBF8D8F80E001
:1018200063E040E00E94F60681E063E040E00E9451
:10183000F60683E06D8D0E94F90782E063E041E0E7
:101840000E94F60680E090E0A0E0B0E4898F9A8FD5
:10185000AB8FBC8F698D7A8D8B8D9C8D20E030E0B5
:101860004AEF54E40E941F02DC01CB018D8B9E8B5A
:10187000AF8BB88F6D897E898F89988D20E030E09D
:1018800040E85FE30E94790388232CF481E090E034
:101890009C8B8B8B3FC06D897E898F89988D20E0D2
:1018A0003FEF4FE757E40E94190318164CF5698D76
:1018B0007A8D8B8D9C8D20E030E040E251E40E94D7
:1018C0001F02DC01CB01BC01CD010E944900DC01FB
:1018D000CB019C8B8B8B0FC088EC90E09A8B898B13
:1018E00089899A890197F1F79A8B898B8B899C89D1
:1018F00001979C8B8B8B8B899C89009769F714C00F
:101900006D897E898F89988D0E944900DC01CB0109
:101910009C8B8B8B8B899C89988B8F878F859889E3
:101920000197F1F7988B8F8782E063E040E00E9497
:10193000F60680E090E0A0E0B0E48B879C87AD875E
:10194000BE876B857C858D859E8520E030E04AEFE3
:1019500054E40E941F02DC01CB018F839887A98782
:10196000BA876F81788589859A8520E030E040E8E4
:101970005FE30E94790388232CF481E090E09E834A
:101980008D833FC06F81788589859A8520E03FEF00
:101990004FE757E40E94190318164CF56B857C85B8
:1019A0008D859E8520E030E040E251E40E941F02D8
:1019B000DC01CB01BC01CD010E944900DC01CB015F
:1019C0009E838D830FC088EC90E09C838B838B81FA
:1019D0009C810197F1F79C838B838D819E81019778
:1019E0009E838D838D819E81009769F714C06F81DE
:1019F000788589859A850E944900DC01CB019E8308
:101A00008D838D819E819A83898389819A810197B3
:101A1000F1F79A83898382E063E041E00E94F60651
:101A20006D960FB6F894DEBF0FBECDBFCF91DF919C
:101A30000895DF93CF93CDB7DEB7E8970FB6F8944C
:101A4000DEBF0FBECDBF83E06FEF0E94A60680E031
:101A500063E041E00E94A30581E063E041E00E9471
:101A6000A30582E063E041E00E94A30580E090E0EE
:101A7000A0EFB1E48DAB9EABAFABB8AF6DA97EA9C3
:101A80008FA998AD20E030E04AEF54E40E941F0295
:101A9000DC01CB0189AB9AABABABBCAB69A97AA932
:101AA0008BA99CA920E030E040E85FE30E94790325
:101AB00088232CF481E090E098AB8FA73FC069A900
:101AC0007AA98BA99CA920E03FEF4FE757E40E9439
:101AD000190318164CF56DA97EA98FA998AD20E0C1
:101AE00030E040E251E40E941F02DC01CB01BC0166
:101AF000CD010E944900DC01CB0198AB8FA70FC03C
:101B000088EC90E09EA78DA78DA59EA50197F1F783
:101B10009EA78DA78FA598A9019798AB8FA78FA592
:101B200098A9009769F714C069A97AA98BA99CA9FB
:101B30000E944900DC01CB0198AB8FA78FA598A923
:101B40009CA78BA78BA59CA50197F1F79CA78BA7BA
:101B500088E20E94040C80E090E0A0E8BFE38FA33D
:101B600098A7A9A7BAA76FA178A589A59AA520E0EB
:101B700030E04AEF54E40E941F02DC01CB018BA34A
:101B80009CA3ADA3BEA36BA17CA18DA19EA120E0CF
:101B900030E040E85FE30E94790388232CF481E081
:101BA00090E09AA389A33FC06BA17CA18DA19EA1C7
:101BB00020E03FEF4FE757E40E94190318164CF559
:101BC0006FA178A589A59AA520E030E040E251E414
:101BD0000E941F02DC01CB01BC01CD010E94490023
:101BE000DC01CB019AA389A30FC088EC90E098A3F5
:101BF0008F8F8F8D98A10197F1F798A38F8F89A16F
:101C00009AA101979AA389A389A19AA1009769F73C
:101C100014C06BA17CA18DA19EA10E944900DC0192
:101C2000CB019AA389A389A19AA19E8F8D8F8D8DB7
:101C30009E8D0197F1F79E8F8D8F8FE00E94040C8F
:101C400080E090E0A0E8BFE3898F9A8FAB8FBC8FD4
:101C5000698D7A8D8B8D9C8D20E030E04AEF54E4C5
:101C60000E941F02DC01CB018D8B9E8BAF8BB88F46
:101C70006D897E898F89988D20E030E040E85FE3B0
:101C80000E94790388232CF481E090E09C8B8B8B5D
:101C90003FC06D897E898F89988D20E03FEF4FE7A7
:101CA00057E40E94190318164CF5698D7A8D8B8DB7
:101CB0009C8D20E030E040E251E40E941F02DC01F4
:101CC000CB01BC01CD010E944900DC01CB019C8B02
:101CD0008B8B0FC088EC90E09A8B898B89899A89CD
:101CE0000197F1F79A8B898B8B899C8901979C8B43
:101CF0008B8B8B899C89009769F714C06D897E89CD
:101D00008F89988D0E944900DC01CB019C8B8B8BC5
:101D10008B899C89988B8F878F8598890197F1F79C
:101D2000988B8F8781E00E94040C80E090E0A0E017
:101D3000B0E48B879C87AD87BE876B857C858D855E
:101D40009E8520E030E04AEF54E40E941F02DC014F
:101D5000CB018F839887A987BA876F81788589851A
:101D60009A8520E030E040E85FE30E947903882311
:101D70002CF481E090E09E838D833FC06F81788555
:101D800089859A8520E03FEF4FE757E40E941903C9
:101D900018164CF56B857C858D859E8520E030E09E
:101DA00040E251E40E941F02DC01CB01BC01CD01E5
:101DB0000E944900DC01CB019E838D830FC088EC1B
:101DC00090E09C838B838B819C810197F1F79C83AE
:101DD0008B838D819E8101979E838D838D819E81D2
:101DE000009769F714C06F81788589859A850E946C
:101DF0004900DC01CB019E838D838D819E819A8376
:101E0000898389819A810197F1F79A83898386E092
:101E10000E94040CE8960FB6F894DEBF0FBECDBF4B
:101E2000CF91DF910895DF93CF93CDB7DEB76D9754
:101E30000FB6F894DEBF0FBECDBF8D8F80E063E09C
:101E400041E00E94F60681E063E040E00E94F60671
:101E500083E06D8D0E94F90782E063E041E00E941B
:101E6000F60680E090E0A0E0B0E4898F9A8FAB8F17
:101E7000BC8F698D7A8D8B8D9C8D20E030E04AEF90
:101E800054E40E941F02DC01CB018D8B9E8BAF8B33
:101E9000B88F6D897E898F89988D20E030E040E889
:101EA0005FE30E94790388232CF481E090E09C8B0F
:101EB0008B8B3FC06D897E898F89988D20E03FEFA5
:101EC0004FE757E40E94190318164CF5698D7A8D77
:101ED0008B8D9C8D20E030E040E251E40E941F0297
:101EE000DC01CB01BC01CD010E944900DC01CB012A
:101EF0009C8B8B8B0FC088EC90E09A8B898B8989A7
:101F00009A890197F1F79A8B898B8B899C89019724
:101F10009C8B8B8B8B899C89009769F714C06D898A
:101F20007E898F89988D0E944900DC01CB019C8BB2
:101F30008B8B8B899C89988B8F878F85988901974C
:101F4000F1F7988B8F8782E063E040E00E94F6060D
:101F500080E090E0A0E0B0E48B879C87AD87BE87EF
:101F60006B857C858D859E8520E030E04AEF54E4CA
:101F70000E941F02DC01CB018F839887A987BA8753
:101F80006F81788589859A8520E030E040E85FE3BD
:101F90000E94790388232CF481E090E09E838D8356
:101FA0003FC06F81788589859A8520E03FEF4FE7B4
:101FB00057E40E94190318164CF56B857C858D85B6
:101FC0009E8520E030E040E251E40E941F02DC01E7
:101FD000CB01BC01CD010E944900DC01CB019E83F5
:101FE0008D830FC088EC90E09C838B838B819C81D8
:101FF0000197F1F79C838B838D819E8101979E834E
:102000008D838D819E81009769F714C06F817885DB
:1020100089859A850E944900DC01CB019E838D83CE
:102020008D819E819A83898389819A810197F1F7B5
:102030009A83898382E063E041E00E94F6066D9610
:102040000FB6F894DEBF0FBECDBFCF91DF910895DC
:10205000DF93CF9300D00F92CDB7DEB79B838A83F7
:1020600019820EC08981282F30E08A819B81FC0172
:10207000E20FF31F80810E94130F89818F5F898394
:102080008981282F30E08A819B81FC01E20FF31FB8
:102090008081882339F70F900F900F90CF91DF91B7
:1020A00008950F931F93DF93CF93CDB7DEB760975B
:1020B0000FB6F894DEBF0FBECDBF6D877E878F87CA
:1020C000988B1A828D859E85AF85B8890097A1056A
:1020D000B10509F44FC02DC08A81082F10E08D850D
:1020E0009E85AF85B8892AE030E040E050E0BC0131
:1020F000CD010E94A632DC01CB01282FCE01039630
:10210000FC01E00FF11F20838D859E85AF85B88986
:102110002AE030E040E050E0BC01CD010E94A63250
:10212000DA01C9018D879E87AF87B88B8A818F5F5F
:102130008A838D859E85AF85B8890097A105B105F5
:1021400059F68A818150898311C08981282F3327CC
:1021500027FD3095CE010396FC01E20FF31F80812D
:10216000805D0E94130F8981815089838981882332
:1021700064F703C080E30E94130F60960FB6F894D3
:10218000DEBF0FBECDBFCF91DF911F910F9108959C
:10219000DF93CF9300D0CDB7DEB789836A8389817F
:1021A000813041F48A81803128F48A8180580E94EC
:1021B000040C0AC08981823039F48A81803120F48C
:1021C0008A8180540E94040C0F900F90CF91DF9170
:1021D0000895DF93CF9300D000D0CDB7DEB78A83C8
:1021E0007C836B838A818830F8F48A81882F90E021
:1021F0000896880F991F880F991F880F991F0E94B2
:10220000040C19820EC08981282F30E08B819C81BB
:10221000FC01E20FF31F80810E94130F89818F5F01
:1022200089838981883078F30F900F900F900F90F9
:10223000CF91DF910895DF93CF93CDB7DEB72E977F
:102240000FB6F894DEBF0FBECDBF81E00E94040C34
:1022500080E090E0A0E0B0E48B879C87AD87BE87EC
:102260006B857C858D859E8520E030E04AEF54E4C7
:102270000E941F02DC01CB018F839887A987BA8750
:102280006F81788589859A8520E030E040E85FE3BA
:102290000E94790388232CF481E090E09E838D8353
:1022A0003FC06F81788589859A8520E03FEF4FE7B1
:1022B00057E40E94190318164CF56B857C858D85B3
:1022C0009E8520E030E040E251E40E941F02DC01E4
:1022D000CB01BC01CD010E944900DC01CB019E83F2
:1022E0008D830FC088EC90E09C838B838B819C81D5
:1022F0000197F1F79C838B838D819E8101979E834B
:102300008D838D819E81009769F714C06F817885D8
:1023100089859A850E944900DC01CB019E838D83CB
:102320008D819E819A83898389819A810197F1F7B2
:102330009A8389832E960FB6F894DEBF0FBECDBF69
:10234000CF91DF910895DF93CF93CDB7DEB760973C
:102350000FB6F894DEBF0FBECDBF888B1F8678C046
:1023600088E10E94040C80E090E0A6E9B3E48B874A
:102370009C87AD87BE876B857C858D859E8520E09B
:1023800030E04AEF54E40E941F02DC01CB018F834E
:102390009887A987BA876F81788589859A8520E093
:1023A00030E040E85FE30E94790388232CF481E069
:1023B00090E09E838D833FC06F81788589859A8563
:1023C00020E03FEF4FE757E40E94190318164CF541
:1023D0006B857C858D859E8520E030E040E251E470
:1023E0000E941F02DC01CB01BC01CD010E9449000B
:1023F000DC01CB019E838D830FC088EC90E09C8331
:102400008B838B819C810197F1F79C838B838D81DA
:102410009E8101979E838D838D819E81009769F7B0
:1024200014C06F81788589859A850E944900DC01F6
:10243000CB019E838D838D819E819A83898389813F
:102440009A810197F1F79A8389838F858F5F8F87B0
:102450009F858889981708F483CF60960FB6F89403
:10246000DEBF0FBECDBFCF91DF910895DF93CF9335
:10247000CDB7DEB760970FB6F894DEBF0FBECDBF05
:10248000888B1F8678C08CE10E94040C80E090E06D
:10249000A6E9B3E48B879C87AD87BE876B857C8577
:1024A0008D859E8520E030E04AEF54E40E941F02B3
:1024B000DC01CB018F839887A987BA876F817885E4
:1024C00089859A8520E030E040E85FE30E94790347
:1024D00088232CF481E090E09E838D833FC06F8140
:1024E000788589859A8520E03FEF4FE757E40E9481
:1024F000190318164CF56B857C858D859E8520E02B
:1025000030E040E251E40E941F02DC01CB01BC013B
:10251000CD010E944900DC01CB019E838D830FC059
:1025200088EC90E09C838B838B819C810197F1F7F1
:102530009C838B838D819E8101979E838D838D816A
:102540009E81009769F714C06F81788589859A8587
:102550000E944900DC01CB019E838D838D819E8189
:102560009A83898389819A810197F1F79A83898374
:102570008F858F5F8F879F858889981708F483CF11
:1025800060960FB6F894DEBF0FBECDBFCF91DF913E
:102590000895DF93CF93CDB7DEB760970FB6F89469
:1025A000DEBF0FBECDBF888B1F8678C080E10E9442
:1025B000040C80E090E0A6E9B3E48B879C87AD87AC
:1025C000BE876B857C858D859E8520E030E04AEF57
:1025D00054E40E941F02DC01CB018F839887A987F6
:1025E000BA876F81788589859A8520E030E040E858
:1025F0005FE30E94790388232CF481E090E09E83BE
:102600008D833FC06F81788589859A8520E03FEF73
:102610004FE757E40E94190318164CF56B857C852B
:102620008D859E8520E030E040E251E40E941F024B
:10263000DC01CB01BC01CD010E944900DC01CB01D2
:102640009E838D830FC088EC90E09C838B838B816D
:102650009C810197F1F79C838B838D819E810197EB
:102660009E838D838D819E81009769F714C06F8151
:10267000788589859A850E944900DC01CB019E837B
:102680008D838D819E819A83898389819A81019727
:10269000F1F79A8389838F858F5F8F879F858889DC
:1026A000981708F483CF60960FB6F894DEBF0FBE7C
:1026B000CDBFCF91DF910895DF93CF93CDB7DEB734
:1026C00060970FB6F894DEBF0FBECDBF888B1F8614
:1026D00078C084E10E94040C80E090E0A6E9B3E4B5
:1026E0008B879C87AD87BE876B857C858D859E8516
:1026F00020E030E04AEF54E40E941F02DC01CB01ED
:102700008F839887A987BA876F81788589859A850D
:1027100020E030E040E85FE30E94790388232CF456
:1027200081E090E09E838D833FC06F8178858985AD
:102730009A8520E03FEF4FE757E40E9419031816EF
:102740004CF56B857C858D859E8520E030E040E2F0
:1027500051E40E941F02DC01CB01BC01CD010E94AB
:102760004900DC01CB019E838D830FC088EC90E093
:102770009C838B838B819C810197F1F79C838B8356
:102780008D819E8101979E838D838D819E8100978F
:1027900069F714C06F81788589859A850E94490000
:1027A000DC01CB019E838D838D819E819A838983F9
:1027B00089819A810197F1F79A8389838F858F5F49
:1027C0008F879F858889981708F483CF60960FB606
:1027D000F894DEBF0FBECDBFCF91DF910895DF9398
:1027E000CF93CDB7DEB72F970FB6F894DEBF0FBEED
:1027F000CDBF8F8780E063E040E00E94F60681E075
:1028000063E040E00E94F60684E063E04F850E94AA
:10281000D90882E063E041E00E94F60680E090E0A3
:10282000A0E0B0E48B879C87AD87BE876B857C85F5
:102830008D859E8520E030E04AEF54E40E941F021F
:10284000DC01CB018F839887A987BA876F81788550
:1028500089859A8520E030E040E85FE30E947903B3
:1028600088232CF481E090E09E838D833FC06F81AC
:10287000788589859A8520E03FEF4FE757E40E94ED
:10288000190318164CF56B857C858D859E8520E097
:1028900030E040E251E40E941F02DC01CB01BC01A8
:1028A000CD010E944900DC01CB019E838D830FC0C6
:1028B00088EC90E09C838B838B819C810197F1F75E
:1028C0009C838B838D819E8101979E838D838D81D7
:1028D0009E81009769F714C06F81788589859A85F4
:1028E0000E944900DC01CB019E838D838D819E81F6
:1028F0009A83898389819A810197F1F79A838983E1
:1029000082E063E040E00E94F6062F960FB6F8944E
:10291000DEBF0FBECDBFCF91DF910895DF93CF9380
:10292000CDB7DEB7E9970FB6F894DEBF0FBECDBFC7
:1029300087E089AF08C089AD63E041E00E94A3054C
:1029400089AD815089AF89AD8430ACF780E063E018
:1029500041E00E94A30581E063E041E00E94A305FD
:1029600082E063E041E00E94A30580E090E0A0EFF8
:10297000B1E48DAB9EABAFABB8AF6DA97EA98FA90B
:1029800098AD20E030E04AEF54E40E941F02DC01E1
:10299000CB0189AB9AABABABBCAB69A97AA98BA9CC
:1029A0009CA920E030E040E85FE30E94790388239F
:1029B0002CF481E090E098AB8FA73FC069A97AA979
:1029C0008BA99CA920E03FEF4FE757E40E94190331
:1029D00018164CF56DA97EA98FA998AD20E030E0BE
:1029E00040E251E40E941F02DC01CB01BC01CD0199
:1029F0000E944900DC01CB0198AB8FA70FC088EC87
:102A000090E09EA78DA78DA59EA50197F1F79EA7A3
:102A10008DA78FA598A9019798AB8FA78FA598A987
:102A2000009769F714C069A97AA98BA99CA90E948B
:102A30004900DC01CB0198AB8FA78FA598A99CA773
:102A40008BA78BA59CA50197F1F79CA78BA782E08C
:102A50000E94EF1382E00E94EF1388E20E94EF13BE
:102A600080E090E0A0E8BFE38FA398A7A9A7BAA74A
:102A70006FA178A589A59AA520E030E04AEF54E43B
:102A80000E941F02DC01CB018BA39CA3ADA3BEA3BC
:102A90006BA17CA18DA19EA120E030E040E85FE326
:102AA0000E94790388232CF481E090E09AA389A303
:102AB0003FC06BA17CA18DA19EA120E03FEF4FE71D
:102AC00057E40E94190318164CF56FA178A589A543
:102AD0009AA520E030E040E251E40E941F02DC01B0
:102AE000CB01BC01CD010E944900DC01CB019AA3BE
:102AF00089A30FC088EC90E098A38F8F8F8D98A149
:102B00000197F1F798A38F8F89A19AA101979AA3B2
:102B100089A389A19AA1009769F714C06BA17CA130
:102B20008DA19EA10E944900DC01CB019AA389A33B
:102B300089A19AA19E8F8D8F8D8D9E8D0197F1F722
:102B40009E8F8D8F80E00E94EF138FE00E94EF1325
:102B500080E090E0A0E8BFE3898F9A8FAB8FBC8FB5
:102B6000698D7A8D8B8D9C8D20E030E04AEF54E4A6
:102B70000E941F02DC01CB018D8B9E8BAF8BB88F27
:102B80006D897E898F89988D20E030E040E85FE391
:102B90000E94790388232CF481E090E09C8B8B8B3E
:102BA0003FC06D897E898F89988D20E03FEF4FE788
:102BB00057E40E94190318164CF5698D7A8D8B8D98
:102BC0009C8D20E030E040E251E40E941F02DC01D5
:102BD000CB01BC01CD010E944900DC01CB019C8BE3
:102BE0008B8B0FC088EC90E09A8B898B89899A89AE
:102BF0000197F1F79A8B898B8B899C8901979C8B24
:102C00008B8B8B899C89009769F714C06D897E89AD
:102C10008F89988D0E944900DC01CB019C8B8B8BA6
:102C20008B899C89988B8F878F8598890197F1F77D
:102C3000988B8F8780E00E94EF1381E00E94EF1352
:102C400080E090E0A0E0B0E48B879C87AD87BE87F2
:102C50006B857C858D859E8520E030E04AEF54E4CD
:102C60000E941F02DC01CB018F839887A987BA8756
:102C70006F81788589859A8520E030E040E85FE3C0
:102C80000E94790388232CF481E090E09E838D8359
:102C90003FC06F81788589859A8520E03FEF4FE7B7
:102CA00057E40E94190318164CF56B857C858D85B9
:102CB0009E8520E030E040E251E40E941F02DC01EA
:102CC000CB01BC01CD010E944900DC01CB019E83F8
:102CD0008D830FC088EC90E09C838B838B819C81DB
:102CE0000197F1F79C838B838D819E8101979E8351
:102CF0008D838D819E81009769F714C06F817885DF
:102D000089859A850E944900DC01CB019E838D83D1
:102D10008D819E819A83898389819A810197F1F7B8
:102D20009A83898380E00E94EF1386E00E94EF136C
:102D3000E9960FB6F894DEBF0FBECDBFCF91DF91FD
:102D40000895DF93CF93CDB7DEB72F970FB6F894E2
:102D5000DEBF0FBECDBF8F8780E063E041E00E9401
:102D6000F60681E063E040E00E94F60684E063E05E
:102D70004F850E94D90882E063E041E00E94F60698
:102D800080E090E0A0E0B0E48B879C87AD87BE87B1
:102D90006B857C858D859E8520E030E04AEF54E48C
:102DA0000E941F02DC01CB018F839887A987BA8715
:102DB0006F81788589859A8520E030E040E85FE37F
:102DC0000E94790388232CF481E090E09E838D8318
:102DD0003FC06F81788589859A8520E03FEF4FE776
:102DE00057E40E94190318164CF56B857C858D8578
:102DF0009E8520E030E040E251E40E941F02DC01A9
:102E0000CB01BC01CD010E944900DC01CB019E83B6
:102E10008D830FC088EC90E09C838B838B819C8199
:102E20000197F1F79C838B838D819E8101979E830F
:102E30008D838D819E81009769F714C06F8178859D
:102E400089859A850E944900DC01CB019E838D8390
:102E50008D819E819A83898389819A810197F1F777
:102E60009A83898382E063E040E00E94F6062F9611
:102E70000FB6F894DEBF0FBECDBFCF91DF9108959E
:102E8000DF93CF930F92CDB7DEB789838981829587
:102E90008F700E94A11689810E94A1160F90CF9178
:102EA000DF910895DF93CF9300D00F92CDB7DEB7B7
:102EB0009B838A8319820EC08981282F30E08A8102
:102EC0009B81FC01E20FF31F80810E9440178981E2
:102ED0008F5F89838981282F30E08A819B81FC0163
:102EE000E20FF31F8081882339F70F900F900F9026
:102EF000CF91DF9108950F931F93DF93CF93CDB7B9
:102F0000DEB760970FB6F894DEBF0FBECDBF6D87FA
:102F10007E878F87988B1A828D859E85AF85B8892D
:102F20000097A105B10509F44FC02DC08A81082F73
:102F300010E08D859E85AF85B8892AE030E040E0BD
:102F400050E0BC01CD010E94A632DC01CB01282F4C
:102F5000CE010396FC01E00FF11F20838D859E8535
:102F6000AF85B8892AE030E040E050E0BC01CD01F7
:102F70000E94A632DA01C9018D879E87AF87B88B80
:102F80008A818F5F8A838D859E85AF85B8890097FA
:102F9000A105B10559F68A818150898311C08981C3
:102FA000282F332727FD3095CE010396FC01E20F31
:102FB000F31F8081805D0E94401789818150898341
:102FC0008981882364F703C080E30E9440176096DC
:102FD0000FB6F894DEBF0FBECDBFCF91DF911F912A
:102FE0000F910895DF93CF9300D0CDB7DEB78983DB
:102FF0006A8389818130B9F48A818031A0F48A8121
:10300000882F90E080589F4F959587959595879547
:1030100095958795959587950E94EF138A8180589D
:103020000E94EF1319C089818230B1F48A81803106
:1030300098F48A81882F90E080549F4F95958795CA
:103040009595879595958795959587950E94EF130A
:103050008A8180540E94EF130F900F90CF91DF91DF
:103060000895DF93CF9300D000D0CDB7DEB78A8329
:103070007C836B838A81883098F58A81882F90E0E1
:103080000896880F991F880F991F880F991F95958B
:1030900087959595879595958795959587950E94A0
:1030A000EF138A81882F90E00896880F991F880F68
:1030B000991F880F991F0E94EF1319820EC08981F2
:1030C000282F30E08B819C81FC01E20FF31F80816F
:1030D0000E94401789818F5F89838981883078F3C6
:1030E0000F900F900F900F90CF91DF910895DF9385
:1030F000CF93CDB7DEB72E970FB6F894DEBF0FBED5
:10310000CDBF80E00E94EF1381E00E94EF1380E0CA
:1031100090E0A0E0B0E48B879C87AD87BE876B858D
:103120007C858D859E8520E030E04AEF54E40E9446
:103130001F02DC01CB018F839887A987BA876F8133
:10314000788589859A8520E030E040E85FE30E9439
:10315000790388232CF481E090E09E838D833FC027
:103160006F81788589859A8520E03FEF4FE757E4A6
:103170000E94190318164CF56B857C858D859E85FC
:1031800020E030E040E251E40E941F02DC01CB016C
:10319000BC01CD010E944900DC01CB019E838D83DF
:1031A0000FC088EC90E09C838B838B819C8101977E
:1031B000F1F79C838B838D819E8101979E838D8304
:1031C0008D819E81009769F714C06F81788589850C
:1031D0009A850E944900DC01CB019E838D838D81FD
:1031E0009E819A83898389819A810197F1F79A83D5
:1031F00089832E960FB6F894DEBF0FBECDBFCF9158
:10320000DF910895DF93CF93CDB7DEB760970FB608
:10321000F894DEBF0FBECDBF888B1F867BC081E0D8
:103220000E94EF1388E10E94EF1380E090E0A6E98E
:10323000B3E48B879C87AD87BE876B857C858D8546
:103240009E8520E030E04AEF54E40E941F02DC013A
:10325000CB018F839887A987BA876F817885898505
:103260009A8520E030E040E85FE30E9479038823FC
:103270002CF481E090E09E838D833FC06F81788540
:1032800089859A8520E03FEF4FE757E40E941903B4
:1032900018164CF56B857C858D859E8520E030E089
:1032A00040E251E40E941F02DC01CB01BC01CD01D0
:1032B0000E944900DC01CB019E838D830FC088EC06
:1032C00090E09C838B838B819C810197F1F79C8399
:1032D0008B838D819E8101979E838D838D819E81BD
:1032E000009769F714C06F81788589859A850E9457
:1032F0004900DC01CB019E838D838D819E819A8361
:10330000898389819A810197F1F79A8389838F85CF
:103310008F5F8F879F858889981708F480CF609684
:103320000FB6F894DEBF0FBECDBFCF91DF910895E9
:10333000DF93CF93CDB7DEB760970FB6F894DEBFBB
:103340000FBECDBF888B1F867BC081E00E94EF132C
:103350008CE10E94EF1380E090E0A6E9B3E48B8754
:103360009C87AD87BE876B857C858D859E8520E09B
:1033700030E04AEF54E40E941F02DC01CB018F834E
:103380009887A987BA876F81788589859A8520E093
:1033900030E040E85FE30E94790388232CF481E069
:1033A00090E09E838D833FC06F81788589859A8563
:1033B00020E03FEF4FE757E40E94190318164CF541
:1033C0006B857C858D859E8520E030E040E251E470
:1033D0000E941F02DC01CB01BC01CD010E9449000B
:1033E000DC01CB019E838D830FC088EC90E09C8331
:1033F0008B838B819C810197F1F79C838B838D81DB
:103400009E8101979E838D838D819E81009769F7B0
:1034100014C06F81788589859A850E944900DC01F6
:10342000CB019E838D838D819E819A83898389813F
:103430009A810197F1F79A8389838F858F5F8F87B0
:103440009F858889981708F480CF60960FB6F89406
:10345000DEBF0FBECDBFCF91DF910895DF93CF9335
:10346000CDB7DEB760970FB6F894DEBF0FBECDBF05
:10347000888B1F867BC081E00E94EF1380E10E9451
:10348000EF1380E090E0A6E9B3E48B879C87AD87DB
:10349000BE876B857C858D859E8520E030E04AEF78
:1034A00054E40E941F02DC01CB018F839887A98717
:1034B000BA876F81788589859A8520E030E040E879
:1034C0005FE30E94790388232CF481E090E09E83DF
:1034D0008D833FC06F81788589859A8520E03FEF95
:1034E0004FE757E40E94190318164CF56B857C854D
:1034F0008D859E8520E030E040E251E40E941F026D
:10350000DC01CB01BC01CD010E944900DC01CB01F3
:103510009E838D830FC088EC90E09C838B838B818E
:103520009C810197F1F79C838B838D819E8101970C
:103530009E838D838D819E81009769F714C06F8172
:10354000788589859A850E944900DC01CB019E839C
:103550008D838D819E819A83898389819A81019748
:10356000F1F79A8389838F858F5F8F879F858889FD
:10357000981708F480CF60960FB6F894DEBF0FBEA0
:10358000CDBFCF91DF910895DF93CF93CDB7DEB755
:1035900060970FB6F894DEBF0FBECDBF888B1F8635
:1035A0007BC081E00E94EF1384E10E94EF1380E072
:1035B00090E0A6E9B3E48B879C87AD87BE876B85D7
:1035C0007C858D859E8520E030E04AEF54E40E94A2
:1035D0001F02DC01CB018F839887A987BA876F818F
:1035E000788589859A8520E030E040E85FE30E9495
:1035F000790388232CF481E090E09E838D833FC083
:103600006F81788589859A8520E03FEF4FE757E401
:103610000E94190318164CF56B857C858D859E8557
:1036200020E030E040E251E40E941F02DC01CB01C7
:10363000BC01CD010E944900DC01CB019E838D833A
:103640000FC088EC90E09C838B838B819C810197D9
:10365000F1F79C838B838D819E8101979E838D835F
:103660008D819E81009769F714C06F817885898567
:103670009A850E944900DC01CB019E838D838D8158
:103680009E819A83898389819A810197F1F79A8330
:1036900089838F858F5F8F879F858889981708F426
:1036A00080CF60960FB6F894DEBF0FBECDBFCF912E
:1036B000DF9108950F931F93DF93CF93CDB7DEB7BC
:1036C000CC53D1400FB6F894DEBF0FBECDBFCE01B4
:1036D00083509F4FCC5DDE4F99838883C452D14085
:1036E0008CE591E0CA5DDE4F99838883C652D14054
:1036F00098E0C85DDE4F9883C852D140CA5DDE4F66
:10370000E881F981C652D1400080CA5DDE4F8881D0
:103710009981C652D1400196CA5DDE4F9983888354
:10372000C652D140CC5DDE4FE881F981C452D14010
:103730000082CC5DDE4F88819981C452D1400196D0
:10374000CC5DDE4F99838883C452D140C85DDE4F83
:103750009881C852D1409150C85DDE4F9883C852BD
:10376000D140C85DDE4FE881C852D140EE2331F62A
:10377000CE018B5F9E4FC75DDE4F99838883C95210
:10378000D14084E591E0C55DDE4F99838883CB52BB
:10379000D14098E0C35DDE4F9883CD52D140C55DE6
:1037A000DE4FE881F981CB52D1400080C55DDE4F0C
:1037B00088819981CB52D1400196C55DDE4F9983B6
:1037C0008883CB52D140C75DDE4FE881F981C95271
:1037D000D1400082C75DDE4F88819981C952D140B6
:1037E0000196C75DDE4F99838883C952D140C35D7E
:1037F000DE4F9881CD52D1409150C35DDE4F98830A
:10380000CD52D140C35DDE4FE881CD52D140EE2391
:1038100031F6CE01835F9E4FC25DDE4F9983888370
:10382000CE52D1408CE491E0C05DDE4F9983888315
:10383000C053D14098E0CE5CDE4F9883C253D14054
:10384000C05DDE4FE881F981C053D1400080C05D8A
:10385000DE4F88819981C053D1400196C05DDE4F13
:1038600099838883C053D140C25DDE4FE881F981DE
:10387000CE52D1400082C25DDE4F88819981CE5206
:10388000D1400196C25DDE4F99838883CE52D140EC
:10389000CE5CDE4F9881C253D1409150CE5CDE4F5A
:1038A0009883C253D140CE5CDE4FE881C253D140F1
:1038B000EE2331F6CE018B5E9E4FCD5CDE4F9983B9
:1038C0008883C353D14084E491E0CB5CDE4F99837D
:1038D0008883C553D14098E0C95CDE4F9883C753B5
:1038E000D140CB5CDE4FE881F981C553D1400080E7
:1038F000CB5CDE4F88819981C553D1400196CB5C6A
:10390000DE4F99838883C553D140CD5CDE4FE8817B
:10391000F981C353D1400082CD5CDE4F888199810B
:10392000C353D1400196CD5CDE4F99838883C35346
:10393000D140C95CDE4F9881C753D1409150C95CDA
:10394000DE4F9883C753D140C95CDE4FE881C7532F
:10395000D140EE2331F685E691E00E94980B84E297
:1039600091E00E94980B86E291E00E94980B88E219
:1039700091E00E94980B8AE291E00E94980B8CE201
:1039800091E00E94980B8EE291E00E94980B80E3F8
:1039900091E00E94980B82E391E00E94060A84E382
:1039A00091E00E94D30986E391E00E94D30988E365
:1039B00091E00E94D3098AE391E00E94D3098CE34D
:1039C00091E00E94D3098EE391E00E94D30980E444
:1039D00091E00E94D30982E491E00E94D3090E9401
:1039E0008E149E0123503F4F80E0B9010E94311890
:1039F0009E012B5F3E4F81E0B9010E9431189E016C
:103A0000235F3E4F82E0B9010E9431189E012B5E78
:103A10003E4F83E0B9010E943118FE01E750FF4F8D
:103A200080E090E0A0E2B1E480839183A283B3833D
:103A30008E010B501F4FFE01E750FF4F60817181D7
:103A40008281938120E030E04AEF54E40E941F021B
:103A5000DC01CB01F80180839183A283B383FE0153
:103A6000EB50FF4F608171818281938120E030E0D3
:103A700040E85FE30E947903882344F4FE01ED509F
:103A8000FF4F81E090E09183808364C0FE01EB50A2
:103A9000FF4F608171818281938120E03FEF4FE78A
:103AA00057E40E94190318160CF043C0FE01E750BA
:103AB000FF4F608171818281938120E030E040E29C
:103AC00051E40E941F02DC01CB018E010D501F4FFB
:103AD000BC01CD010E944900DC01CB01F8019183BA
:103AE00080831FC0FE01EF50FF4F88EC90E0918370
:103AF0008083FE01EF50FF4F808191810197F1F7A4
:103B0000FE01EF50FF4F91838083DE01AD50BF4F28
:103B1000FE01ED50FF4F80819181019711969C939A
:103B20008E93FE01ED50FF4F808191810097D1F679
:103B300027C08E010D501F4FFE01EB50FF4F6081DB
:103B40007181828193810E944900DC01CB01F801DF
:103B500091838083DE01A151BF4FFE01ED50FF4FE5
:103B6000808191818D939C93FE01E151FF4F808173
:103B700091810197F1F7FE01E151FF4F918380831D
:103B800080E00E94EF1381E00E94EF1381E064E087
:103B90000E94F21787E50E94401785E60E944017B1
:103BA0008CE60E94401783E60E9440178FE60E9431
:103BB00040178DE60E94401785E60E944017FE01DF
:103BC000E551FF4F80E090E0AAE7B4E48083918361
:103BD000A283B3838E0109511F4FFE01E551FF4FB0
:103BE000608171818281938120E030E04AEF54E46A
:103BF0000E941F02DC01CB01F80180839183A28324
:103C0000B383FE01E951FF4F60817181828193810D
:103C100020E030E040E85FE30E947903882344F429
:103C2000FE01EB51FF4F81E090E09183808364C0FF
:103C3000FE01E951FF4F608171818281938120E013
:103C40003FEF4FE757E40E94190318160CF043C0EA
:103C5000FE01E551FF4F608171818281938120E0F7
:103C600030E040E251E40E941F02DC01CB018E01F2
:103C70000B511F4FBC01CD010E944900DC01CB015B
:103C8000F801918380831FC0FE01ED51FF4F88EC46
:103C900090E091838083FE01ED51FF4F80819181FF
:103CA0000197F1F7FE01ED51FF4F91838083DE0113
:103CB000AB51BF4FFE01EB51FF4F808191810197C6
:103CC00011969C938E93FE01EB51FF4F8081918161
:103CD0000097D1F627C08E010B511F4FFE01E9510D
:103CE000FF4F60817181828193810E944900DC01D4
:103CF000CB01F80191838083DE01AF51BF4FFE01FC
:103D0000EB51FF4F808191818D939C93FE01EF5188
:103D1000FF4F808191810197F1F7FE01EF51FF4F35
:103D20009183808387E00E940219FE01E352FF4FD6
:103D300080E090E0AAE7B4E480839183A283B38318
:103D40008E0107521F4FFE01E352FF4F60817181C8
:103D50008281938120E030E04AEF54E40E941F0208
:103D6000DC01CB01F80180839183A283B383FE0140
:103D7000E752FF4F608171818281938120E030E0C2
:103D800040E85FE30E947903882344F4FE01E9528E
:103D9000FF4F81E090E09183808364C0FE01E75291
:103DA000FF4F608171818281938120E03FEF4FE777
:103DB00057E40E94190318160CF043C0FE01E352A9
:103DC000FF4F608171818281938120E030E040E289
:103DD00051E40E941F02DC01CB018E0109521F4FEA
:103DE000BC01CD010E944900DC01CB01F8019183A7
:103DF00080831FC0FE01EB52FF4F88EC90E091835F
:103E00008083FE01EB52FF4F808191810197F1F792
:103E1000FE01EB52FF4F91838083DE01A952BF4F19
:103E2000FE01E952FF4F80819181019711969C9389
:103E30008E93FE01E952FF4F808191810097D1F668
:103E400027C08E0109521F4FFE01E752FF4F6081CC
:103E50007181828193810E944900DC01CB01F801CC
:103E600091838083DE01AD52BF4FFE01E952FF4FC7
:103E7000808191818D939C93FE01ED52FF4F808153
:103E800091810197F1F7FE01ED52FF4F91838083FD
:103E90000E94771882E065E00E94F21784E50E9494
:103EA000401781E40E94401783E50E9440178BE48D
:103EB0000E94401780E20E94401784E30E9440174E
:103EC00082E00E94C41A82E50E944017FE01E1537D
:103ED000FF4F80E090E0AAE7B4E480839183A2835F
:103EE000B3838E0105531F4FFE01E153FF4F6081E5
:103EF00071818281938120E030E04AEF54E40E9496
:103F00001F02DC01CB01F80180839183A283B3837C
:103F1000FE01E553FF4F608171818281938120E032
:103F200030E040E85FE30E947903882344F4FE0117
:103F3000E753FF4F81E090E09183808364C0FE01EE
:103F4000E553FF4F608171818281938120E03FEFD3
:103F50004FE757E40E94190318160CF043C0FE0106
:103F6000E153FF4F608171818281938120E030E0D5
:103F700040E251E40E941F02DC01CB018E01075395
:103F80001F4FBC01CD010E944900DC01CB01F801AB
:103F9000918380831FC0FE01E953FF4F88EC90E0BE
:103FA00091838083FE01E953FF4F808191810197C6
:103FB000F1F7FE01E953FF4F91838083DE01A753A0
:103FC000BF4FFE01E753FF4F80819181019711960A
:103FD0009C938E93FE01E753FF4F80819181009760
:103FE000D1F627C08E0107531F4FFE01E553FF4F47
:103FF00060817181828193810E944900DC01CB0143
:10400000F80191838083DE01AB53BF4FFE01E7537C
:10401000FF4F808191818D939C93FE01EB53FF4F65
:10402000808191810197F1F7FE01EB53FF4F91835E
:10403000808380E00E94EF1381E00E94EF1384E010
:104040000E94C41A80E690E00E945217FE01EF53CE
:10405000FF4F80E090E0AAEFB4E480839183A283D5
:10406000B3838E0103541F4FFE01EF53FF4F608156
:1040700071818281938120E030E04AEF54E40E9414
:104080001F02DC01CB01F80180839183A283B383FB
:10409000FE01E354FF4F608171818281938120E0B2
:1040A00030E040E85FE30E947903882344F4FE0196
:1040B000E554FF4F81E090E09183808364C0FE016E
:1040C000E354FF4F608171818281938120E03FEF53
:1040D0004FE757E40E94190318160CF043C0FE0185
:1040E000EF53FF4F608171818281938120E030E046
:1040F00040E251E40E941F02DC01CB018E01055415
:104100001F4FBC01CD010E944900DC01CB01F80129
:10411000918380831FC0FE01E754FF4F88EC90E03D
:1041200091838083FE01E754FF4F80819181019745
:10413000F1F7FE01E754FF4F91838083DE01A55420
:10414000BF4FFE01E554FF4F808191810197119689
:104150009C938E93FE01E554FF4F808191810097DF
:10416000D1F627C08E0105541F4FFE01E354FF4FC7
:1041700060817181828193810E944900DC01CB01C1
:10418000F80191838083DE01A954BF4FFE01E554FD
:10419000FF4F808191818D939C93FE01E954FF4FE5
:1041A000808191810197F1F7FE01E954FF4F9183DE
:1041B000808382E062E00E94F217CE01835E9E4F10
:1041C000C85CDE4F99838883C853D14082E990E070
:1041D000C65CDE4F99838883CA53D14097E0C45CA4
:1041E000DE4F9883CC53D140C65CDE4FE881F98125
:1041F000CA53D1400080C65CDE4F88819981CA5382
:10420000D1400196C65CDE4F99838883CA53D14062
:10421000C85CDE4FE881F981C853D1400082C85C98
:10422000DE4F88819981C853D1400196C85CDE4F2A
:1042300099838883C853D140C45CDE4F9881CC53A6
:10424000D1409150C45CDE4F9883CC53D140C45CC4
:10425000DE4FE881CC53D140EE2331F68BE690E07F
:104260000E94521780E20E944017CE01835E9E4F4B
:104270000E945217FE01ED54FF4F80E090E0AAEF3C
:10428000B4E480839183A283B3838E0101551F4FD1
:10429000FE01ED54FF4F608171818281938120E0A6
:1042A00030E04AEF54E40E941F02DC01CB01F80128
:1042B00080839183A283B383FE01E155FF4F608128
:1042C00071818281938120E030E040E85FE30E94C9
:1042D0007903882344F4FE01E355FF4F81E090E029
:1042E0009183808364C0FE01E155FF4F608171813D
:1042F0008281938120E03FEF4FE757E40E9419034A
:1043000018160CF043C0FE01ED54FF4F608171811F
:104310008281938120E030E040E251E40E941F025C
:10432000DC01CB018E0103551F4FBC01CD010E9462
:104330004900DC01CB01F801918380831FC0FE019D
:10434000E555FF4F88EC90E091838083FE01E555B1
:10435000FF4F808191810197F1F7FE01E555FF4FF5
:1043600091838083DE01A355BF4FFE01E355FF4FCC
:1043700080819181019711969C938E93FE01E35564
:10438000FF4F808191810097D1F627C08E010355A0
:104390001F4FFE01E155FF4F608171818281938142
:1043A0000E944900DC01CB01F80191838083DE018A
:1043B000A755BF4FFE01E355FF4F808191818D933B
:1043C0009C93FE01E755FF4F808191810197F1F7A2
:1043D000FE01E755FF4F9183808380E00E94EF1339
:1043E00081E00E94EF13FE01EB55FF4F80E090E06B
:1043F000AAEFB4E480839183A283B3838E010F5527
:104400001F4FFE01EB55FF4F6081718182819381C7
:1044100020E030E04AEF54E40E941F02DC01CB01AF
:10442000F80180839183A283B383FE01EF55FF4F90
:10443000608171818281938120E030E040E85FE318
:104440000E947903882344F4FE01E156FF4F81E086
:1044500090E09183808364C0FE01EF55FF4F60813F
:1044600071818281938120E03FEF4FE757E40E9402
:10447000190318160CF043C0FE01EB55FF4F608185
:1044800071818281938120E030E040E251E40E941A
:104490001F02DC01CB018E0101561F4FBC01CD0173
:1044A0000E944900DC01CB01F801918380831FC089
:1044B000FE01E356FF4F88EC90E091838083FE017C
:1044C000E356FF4F808191810197F1F7FE01E3569A
:1044D000FF4F91838083DE01A156BF4FFE01E1565D
:1044E000FF4F80819181019711969C938E93FE01DD
:1044F000E156FF4F808191810097D1F627C08E0150
:1045000001561F4FFE01EF55FF4F6081718182817F
:1045100093810E944900DC01CB01F80191838083E3
:10452000DE01A556BF4FFE01E156FF4F808191810C
:104530008D939C93FE01E556FF4F808191810197F9
:10454000F1F7FE01E556FF4F9183808381E790E00C
:104550000E94521782E062E00E94F2176DE67BED46
:1045600086E199E00E947B17FE01E956FF4F80E04B
:1045700090E0AAEFB4E480839183A283B3838E0199
:104580000D561F4FFE01E956FF4F608171818281F8
:10459000938120E030E04AEF54E40E941F02DC01E6
:1045A000CB01F80180839183A283B383FE01ED5692
:1045B000FF4F608171818281938120E030E040E88B
:1045C0005FE30E947903882344F4FE01EF56FF4F16
:1045D00081E090E09183808364C0FE01ED56FF4F3F
:1045E000608171818281938120E03FEF4FE757E442
:1045F0000E94190318160CF043C0FE01E956FF4F44
:10460000608171818281938120E030E040E251E459
:104610000E941F02DC01CB018E010F561F4FBC010F
:10462000CD010E944900DC01CB01F8019183808318
:104630001FC0FE01E157FF4F88EC90E0918380831B
:10464000FE01E157FF4F808191810197F1F7FE0153
:10465000E157FF4F91838083DE01AF56BF4FFE01CC
:10466000EF56FF4F80819181019711969C938E9315
:10467000FE01EF56FF4F808191810097D1F627C050
:104680008E010F561F4FFE01ED56FF4F6081718165
:10469000828193810E944900DC01CB01F801918362
:1046A0008083DE01A357BF4FFE01EF56FF4F80818D
:1046B00091818D939C93FE01E357FF4F80819181FF
:1046C0000197F1F7FE01E357FF4F9183808380E06C
:1046D0000E94EF1381E00E94EF1380E690E00E94B9
:1046E000521782E069E00E94F21780E00E944017B2
:1046F00082E068E00E94F21781E00E94401782E0A9
:1047000067E00E94F21782E00E94401782E066E0B4
:104710000E94F21783E00E94401782E065E00E9449
:10472000F217FE01E757FF4F80E090E0AAEFB4E4F4
:1047300080839183A283B3838E010B571F4FFE01A9
:10474000E757FF4F608171818281938120E030E0E3
:104750004AEF54E40E941F02DC01CB01F801808380
:104760009183A283B383FE01EB57FF4F6081718178
:104770008281938120E030E040E85FE30E9479038A
:10478000882344F4FE01ED57FF4F81E090E09183D0
:10479000808364C0FE01EB57FF4F6081718182818D
:1047A000938120E03FEF4FE757E40E94190318166A
:1047B0000CF043C0FE01E757FF4F60817181828199
:1047C000938120E030E040E251E40E941F02DC01CE
:1047D000CB018E010D571F4FBC01CD010E94490036
:1047E000DC01CB01F801918380831FC0FE01EF57EC
:1047F000FF4F88EC90E091838083FE01EF57FF4FDD
:10480000808191810197F1F7FE01EF57FF4F91836E
:104810008083DE01AD57BF4FFE01ED57FF4F808112
:104820009181019711969C938E93FE01ED57FF4F56
:10483000808191810097D1F627C08E010D571F4FBF
:10484000FE01EB57FF4F60817181828193810E944D
:104850004900DC01CB01F80191838083DE01A1587E
:10486000BF4FFE01ED57FF4F808191818D939C9347
:10487000FE01E158FF4F808191810197F1F7FE0120
:10488000E158FF4F9183808380E00E94EF1381E025
:104890000E94EF1384E391E00E94E809882309F065
:1048A000BEC0FE01E558FF4F80E090E0A8E4B2E40E
:1048B00080839183A283B3838E0109581F4FFE0129
:1048C000E558FF4F608171818281938120E030E063
:1048D0004AEF54E40E941F02DC01CB01F8018083FF
:1048E0009183A283B383FE01E958FF4F60817181F8
:1048F0008281938120E030E040E85FE30E94790309
:10490000882344F4FE01EB58FF4F81E090E091834F
:10491000808364C0FE01E958FF4F6081718182810C
:10492000938120E03FEF4FE757E40E9419031816E8
:104930000CF043C0FE01E558FF4F60817181828118
:10494000938120E030E040E251E40E941F02DC014C
:10495000CB018E010B581F4FBC01CD010E944900B5
:10496000DC01CB01F801918380831FC0FE01ED586B
:10497000FF4F88EC90E091838083FE01ED58FF4F5C
:10498000808191810197F1F7FE01ED58FF4F9183EE
:104990008083DE01AB58BF4FFE01EB58FF4F808193
:1049A0009181019711969C938E93FE01EB58FF4FD6
:1049B000808191810097D1F627C08E010B581F4F3F
:1049C000FE01E958FF4F60817181828193810E94CD
:1049D0004900DC01CB01F80191838083DE01AF58EF
:1049E000BF4FFE01EB58FF4F808191818D939C93C7
:1049F000FE01EF58FF4F808191810197F1F7FE0191
:104A0000EF58FF4F9183808384E391E00E94E8098F
:104A1000882309F03FCF81E00E940B2A3BCF86E339
:104A200091E00E94E809882309F0BEC0FE01E35925
:104A3000FF4F80E090E0A8E4B2E480839183A283FA
:104A4000B3838E0107591F4FFE01E359FF4F608169
:104A500071818281938120E030E04AEF54E40E942A
:104A60001F02DC01CB01F80180839183A283B38311
:104A7000FE01E759FF4F608171818281938120E0BF
:104A800030E040E85FE30E947903882344F4FE01AC
:104A9000E959FF4F81E090E09183808364C0FE017B
:104AA000E759FF4F608171818281938120E03FEF60
:104AB0004FE757E40E94190318160CF043C0FE019B
:104AC000E359FF4F608171818281938120E030E062
:104AD00040E251E40E941F02DC01CB018E01095922
:104AE0001F4FBC01CD010E944900DC01CB01F80140
:104AF000918380831FC0FE01EB59FF4F88EC90E04B
:104B000091838083FE01EB59FF4F80819181019752
:104B1000F1F7FE01EB59FF4F91838083DE01A95924
:104B2000BF4FFE01E959FF4F808191810197119696
:104B30009C938E93FE01E959FF4F808191810097EC
:104B4000D1F627C08E0109591F4FFE01E759FF4FCB
:104B500060817181828193810E944900DC01CB01D7
:104B6000F80191838083DE01AD59BF4FFE01E95901
:104B7000FF4F808191818D939C93FE01ED59FF4FF2
:104B8000808191810197F1F7FE01ED59FF4F9183EB
:104B9000808386E391E00E94E809882309F07ACEB9
:104BA00082E00E940B2A76CE88E391E00E94E80919
:104BB000882309F0BEC0FE01E15AFF4F80E090E07B
:104BC000A8E4B2E480839183A283B3838E01055A63
:104BD0001F4FFE01E15AFF4F6081718182819381F5
:104BE00020E030E04AEF54E40E941F02DC01CB01D8
:104BF000F80180839183A283B383FE01E55AFF4FBE
:104C0000608171818281938120E030E040E85FE340
:104C10000E947903882344F4FE01E75AFF4F81E0A4
:104C200090E09183808364C0FE01E55AFF4F60816C
:104C300071818281938120E03FEF4FE757E40E942A
:104C4000190318160CF043C0FE01E15AFF4F6081B2
:104C500071818281938120E030E040E251E40E9442
:104C60001F02DC01CB018E01075A1F4FBC01CD0191
:104C70000E944900DC01CB01F801918380831FC0B1
:104C8000FE01E95AFF4F88EC90E091838083FE019A
:104C9000E95AFF4F808191810197F1F7FE01E95AAE
:104CA000FF4F91838083DE01A75ABF4FFE01E75A71
:104CB000FF4F80819181019711969C938E93FE0105
:104CC000E75AFF4F808191810097D1F627C08E016E
:104CD000075A1F4FFE01E55AFF4F608171818281A3
:104CE00093810E944900DC01CB01F801918380830C
:104CF000DE01AB5ABF4FFE01E75AFF4F8081918121
:104D00008D939C93FE01EB5AFF4F80819181019717
:104D1000F1F7FE01EB5AFF4F9183808388E391E026
:104D20000E94E809882309F0B5CD83E00E940B2A90
:104D3000B1CD8AE391E00E94E809882309F0BEC062
:104D4000FE01EF5AFF4F80E090E0A8E4B2E48083D8
:104D50009183A283B3838E01035B1F4FFE01EF5A41
:104D6000FF4F608171818281938120E030E04AEFC2
:104D700054E40E941F02DC01CB01F801808391837F
:104D8000A283B383FE01E35BFF4F60817181828167
:104D9000938120E030E040E85FE30E9479038823BC
:104DA00044F4FE01E55BFF4F81E090E09183808356
:104DB00064C0FE01E35BFF4F60817181828193815A
:104DC00020E03FEF4FE757E40E94190318160CF05C
:104DD00043C0FE01EF5AFF4F608171818281938150
:104DE00020E030E040E251E40E941F02DC01CB01F0
:104DF0008E01055B1F4FBC01CD010E944900DC0103
:104E0000CB01F801918380831FC0FE01E75BFF4F58
:104E100088EC90E091838083FE01E75BFF4F808107
:104E200091810197F1F7FE01E75BFF4F918380834A
:104E3000DE01A55BBF4FFE01E55BFF4F80819181E5
:104E4000019711969C938E93FE01E55BFF4F808145
:104E500091810097D1F627C08E01055B1F4FFE019F
:104E6000E35BFF4F60817181828193810E944900E1
:104E7000DC01CB01F80191838083DE01A95BBF4F88
:104E8000FE01E55BFF4F808191818D939C93FE0134
:104E9000E95BFF4F808191810197F1F7FE01E95BAA
:104EA000FF4F918380838AE391E00E94E809882381
:104EB00009F0F0CC84E00E940B2AECCC8CE391E06A
:104EC0000E94E809882309F090C0FE01ED5BFF4FC6
:104ED00080E090E0A8E4B2E480839183A283B3836E
:104EE0008E01015C1F4FFE01ED5BFF4F6081718100
:104EF0008281938120E030E04AEF54E40E941F0257
:104F0000DC01CB01F80180839183A283B383FE018E
:104F1000FF96608171818281938120E030E040E8DA
:104F20005FE30E94790388232CF481E090E09EAF38
:104F30008DAF46C0FE01FF966081718182819381B1
:104F400020E03FEF4FE757E40E941903181664F57D
:104F5000FE01ED5BFF4F608171818281938120E0D2
:104F600030E040E251E40E941F02DC01CB01BC01B1
:104F7000CD010E944900DC01CB019EAF8DAF0FC077
:104F800088EC90E09CAF8BAF8BAD9CAD0197F1F7B7
:104F90009CAF8BAF8DAD9EAD01979EAF8DAF8DADAC
:104FA0009EAD009769F716C0FE01FF966081718182
:104FB000828193810E944900DC01CB019EAF8DAFBD
:104FC0008DAD9EAD9AAF89AF89AD9AAD0197F1F7DE
:104FD0009AAF89AF8CE391E00E94E809882309F039
:104FE00059CC85E00E940B2A55CC8EE391E00E94BB
:104FF000E809882309F07DC080E090E0A8E4B2E4ED
:105000008DAB9EABAFABB8AF6DA97EA98FA998ADA4
:1050100020E030E04AEF54E40E941F02DC01CB01A3
:1050200089AB9AABABABBCAB69A97AA98BA99CA99C
:1050300020E030E040E85FE30E94790388232CF40D
:1050400081E090E098AB8FA73FC069A97AA98BA9AE
:105050009CA920E03FEF4FE757E40E941903181680
:105060004CF56DA97EA98FA998AD20E030E040E213
:1050700051E40E941F02DC01CB01BC01CD010E9462
:105080004900DC01CB0198AB8FA70FC088EC90E002
:105090009EA78DA78DA59EA50197F1F79EA78DA729
:1050A0008FA598A9019798AB8FA78FA598A900976E
:1050B00069F714C069A97AA98BA99CA90E94490023
:1050C000DC01CB0198AB8FA78FA598A99CA78BA7D4
:1050D0008BA59CA50197F1F79CA78BA78EE391E088
:1050E0000E94E809882309F0D5CB86E00E940B2AAC
:1050F000D1CB80E491E00E94E809882309F07DC0CB
:1051000080E090E0A8E4B2E48FA398A7A9A7BAA78B
:105110006FA178A589A59AA520E030E04AEF54E474
:105120000E941F02DC01CB018BA39CA3ADA3BEA3F5
:105130006BA17CA18DA19EA120E030E040E85FE35F
:105140000E94790388232CF481E090E09AA389A33C
:105150003FC06BA17CA18DA19EA120E03FEF4FE756
:1051600057E40E94190318164CF56FA178A589A57C
:105170009AA520E030E040E251E40E941F02DC01E9
:10518000CB01BC01CD010E944900DC01CB019AA3F7
:1051900089A30FC088EC90E098A38F8F8F8D98A182
:1051A0000197F1F798A38F8F89A19AA101979AA3EC
:1051B00089A389A19AA1009769F714C06BA17CA16A
:1051C0008DA19EA10E944900DC01CB019AA389A375
:1051D00089A19AA19E8F8D8F8D8D9E8D0197F1F75C
:1051E0009E8F8D8F80E491E00E94E809882309F06A
:1051F00051CB87E00E940B2A4DCB82E491E00E94C4
:10520000E809882309F07DC080E090E0A8E4B2E4DA
:10521000898F9A8FAB8FBC8F698D7A8D8B8D9C8D8A
:1052200020E030E04AEF54E40E941F02DC01CB0191
:105230008D8B9E8BAF8BB88F6D897E898F89988D72
:1052400020E030E040E85FE30E94790388232CF4FB
:1052500081E090E09C8B8B8B3FC06D897E898F892C
:10526000988D20E03FEF4FE757E40E94190318168E
:105270004CF5698D7A8D8B8D9C8D20E030E040E27D
:1052800051E40E941F02DC01CB01BC01CD010E9450
:105290004900DC01CB019C8B8B8B0FC088EC90E02C
:1052A0009A8B898B89899A890197F1F79A8B898BD7
:1052B0008B899C8901979C8B8B8B8B899C89009710
:1052C00069F714C06D897E898F89988D0E94490085
:1052D000DC01CB019C8B8B8B8B899C89988B8F8776
:1052E0008F8598890197F1F7988B8F8782E491E0F9
:1052F0000E94E809882309F0CDCA88E00E940B2AA1
:10530000C9CA82E391E060E00E94410A8DE790E023
:105310000E94521782E066E00E94F2178AE890E04D
:105320000E94521780E090E0AAE7B4E48B879C8744
:10533000AD87BE876B857C858D859E8520E030E0BE
:105340004AEF54E40E941F02DC01CB018F8398874F
:10535000A987BA876F81788589859A8520E030E0B2
:1053600040E85FE30E94790388232CF481E090E019
:105370009E838D833FC06F81788589859A8520E0E3
:105380003FEF4FE757E40E94190318164CF56B8561
:105390007C858D859E8520E030E040E251E40E94CE
:1053A0001F02DC01CB01BC01CD010E944900DC01E0
:1053B000CB019E838D830FC088EC90E09C838B8310
:1053C0008B819C810197F1F79C838B838D819E81DA
:1053D00001979E838D838D819E81009769F714C00C
:1053E0006F81788589859A850E944900DC01CB010F
:1053F0009E838D838D819E819A83898389819A8101
:105400000197F1F79A83898380E00E94EF1381E08E
:105410000E94EF133FCA0F931F93DF93CF93CDB733
:10542000DEB7C759D0400FB6F894DEBF0FBECDBF70
:10543000FE01EB56FF4F8083FE01EB56FF4F80814C
:10544000282F30E0CA56DF4F39832883C659D04011
:10545000CA56DF4F88819981C659D0408430910562
:1054600009F4F8C3CA56DF4FE881F981C659D04024
:10547000E530F105FCF4CA56DF4F28813981C65961
:10548000D0402230310509F401C2CA56DF4F88816D
:105490009981C659D040833091050CF0E7C2CA56B5
:1054A000DF4FE881F981C659D040E130F10561F163
:1054B0000C949A32CA56DF4F28813981C659D040A0
:1054C0002630310509F48EC5CA56DF4F888199818F
:1054D000C659D040863091050CF4B7C4CA56DF4F88
:1054E000E881F981C659D040E730F10509F425C6B5
:1054F000CA56DF4F28813981C659D040283031053E
:1055000009F45EC70C949A3280E00E94EF1381E0A8
:105510000E94EF1382E391E061E00E94410A89E971
:1055200090E00E94521782E066E00E94F21788EA3B
:1055300090E00E94521781E00E94981985E691E060
:105540000E94AE0B84E291E00E94AE0B86E291E0F5
:105550000E94AE0B88E291E00E94AE0B8AE291E0DD
:105560000E94AE0B8CE291E00E94AE0B8EE291E0C5
:105570000E94AE0B80E391E00E94AE0BFE01E75764
:10558000FF4F80E090E0AAEFB3E480839183A28391
:10559000B3838E010B571F4FFE01E757FF4F60810A
:1055A00071818281938120E030E04AEF54E40E94CF
:1055B0001F02DC01CB01F80180839183A283B383B6
:1055C000FE01EB57FF4F608171818281938120E062
:1055D00030E040E85FE30E947903882344F4FE0151
:1055E000ED57FF4F81E090E09183808364C0FE011E
:1055F000EB57FF4F608171818281938120E03FEF03
:105600004FE757E40E94190318160CF043C0FE013F
:10561000E757FF4F608171818281938120E030E004
:1056200040E251E40E941F02DC01CB018E010D57C4
:105630001F4FBC01CD010E944900DC01CB01F801E4
:10564000918380831FC0FE01EF57FF4F88EC90E0ED
:1056500091838083FE01EF57FF4F808191810197F5
:10566000F1F7FE01EF57FF4F91838083DE01AD57C5
:10567000BF4FFE01ED57FF4F808191810197119639
:105680009C938E93FE01ED57FF4F8081918100978F
:10569000D1F627C08E010D571F4FFE01EB57FF4F6C
:1056A00060817181828193810E944900DC01CB017C
:1056B000F80191838083DE01A158BF4FFE01ED57B1
:1056C000FF4F808191818D939C93FE01E158FF4FA4
:1056D000808191810197F1F7FE01E158FF4F91839D
:1056E000808385E691E00E94C40B84E291E00E94F1
:1056F000C40B86E291E00E94C40B88E291E00E9414
:10570000C40B8AE291E00E94C40B8CE291E00E94FB
:10571000C40B8EE291E00E94C40B80E391E00E94F2
:10572000C40BFE01E558FF4F80E090E0AAEFB3E420
:1057300080839183A283B3838E0109581F4FFE019A
:10574000E558FF4F608171818281938120E030E0D4
:105750004AEF54E40E941F02DC01CB01F801808370
:105760009183A283B383FE01E958FF4F6081718169
:105770008281938120E030E040E85FE30E9479037A
:10578000882344F4FE01EB58FF4F81E090E09183C1
:10579000808364C0FE01E958FF4F6081718182817E
:1057A000938120E03FEF4FE757E40E94190318165A
:1057B0000CF043C0FE01E558FF4F6081718182818A
:1057C000938120E030E040E251E40E941F02DC01BE
:1057D000CB018E010B581F4FBC01CD010E94490027
:1057E000DC01CB01F801918380831FC0FE01ED58DD
:1057F000FF4F88EC90E091838083FE01ED58FF4FCE
:10580000808191810197F1F7FE01ED58FF4F91835F
:105810008083DE01AB58BF4FFE01EB58FF4F808104
:105820009181019711969C938E93FE01EB58FF4F47
:10583000808191810097D1F67DC68E010B581F4F54
:10584000FE01E958FF4F60817181828193810E943E
:105850004900DC01CB01F80191838083DE01AF5860
:10586000BF4FFE01EB58FF4F8081918111969C93B1
:105870008E93FE01EF58FF4F808191810197F1F7E0
:10588000FE01EF58FF4F9183808354C680E00E9451
:10589000EF1381E00E94EF1382E391E062E00E9447
:1058A000410A83EB90E00E94521782E066E00E947A
:1058B000F21788EA90E00E94521780E060E00E94B0
:1058C000F907FE01EC56FF4F1082C8C080E060E08F
:1058D0000E94F907FE01EC56FF4F808160E041E035
:1058E0000E94F606FE01E359FF4F80E090E0A6E13A
:1058F000B3E480839183A283B3838E0107591F4F42
:10590000FE01E359FF4F608171818281938120E024
:1059100030E04AEF54E40E941F02DC01CB01F801A1
:1059200080839183A283B383FE01E759FF4F608197
:1059300071818281938120E030E040E85FE30E9442
:105940007903882344F4FE01E959FF4F81E090E098
:105950009183808364C0FE01E759FF4F60817181AC
:105960008281938120E03FEF4FE757E40E941903C3
:1059700018160CF043C0FE01E359FF4F608171819E
:105980008281938120E030E040E251E40E941F02D6
:10599000DC01CB018E0109591F4FBC01CD010E94D2
:1059A0004900DC01CB01F801918380831FC0FE0117
:1059B000EB59FF4F88EC90E091838083FE01EB5917
:1059C000FF4F808191810197F1F7FE01EB59FF4F65
:1059D00091838083DE01A959BF4FFE01E959FF4F32
:1059E00080819181019711969C938E93FE01E959D4
:1059F000FF4F808191810097D1F627C08E01095910
:105A00001F4FFE01E759FF4F6081718182819381B1
:105A10000E944900DC01CB01F80191838083DE0103
:105A2000AD59BF4FFE01E959FF4F808191818D93A0
:105A30009C93FE01ED59FF4F808191810197F1F711
:105A4000FE01ED59FF4F91838083DE01AC56BF4FBD
:105A5000FE01EC56FF4F80818F5F8C93FE01EC5668
:105A6000FF4F8081883008F431CF64C580E00E9408
:105A7000EF1381E00E94EF1382E391E063E00E9464
:105A8000410A82EC90E00E94521782E066E00E9498
:105A9000F21788EA90E00E94521780E060E00E94CE
:105AA000F907FE01ED56FF4F1082CCC080E060E0A8
:105AB0000E94F907FE01ED56FF4F97E08081F92F14
:105AC000F81B8F2F60E041E00E94F606FE01E15ACC
:105AD000FF4F80E090E0A6E1B3E480839183A2834E
